:020000040800F2
:1000000000C000208D3E0008191800081B180008C9
:100010001D1800081F180008211800080000000023
:10002000000000000000000000000000231800088D
:1000300025180008000000002718000829180008EB
:10004000DD3E0008DD3E0008DD3E0008DD3E000824
:10005000DD3E0008DD3E0008DD3E0008DD3E000814
:10006000DD3E0008DD3E0008DD3E0008DD3E000804
:10007000DD3E0008DD3E0008DD3E0008DD3E0008F4
:10008000DD3E0008DD3E0008DD3E0008DD3E0008E4
:10009000DD3E0008DD3E0008DD3E0008DD3E0008D4
:1000A000DD3E0008DD3E0008DD3E00083118000896
:1000B000DD3E00080000000000000000DD3E0008FA
:1000C000DD3E00080000000000000000DD3E0008EA
:1000D00000000000DD3E0008DD3E000800000000DA
:1000E000DD3E0008DD3E00080000000000000000CA
:1000F0000000000000000000000000000000000000
:10010000000000000000000000000000DD3E0008CC
:100110000000000000000000DD3E0008DD3E000899
:10012000DD3E0008DD3E0008DD3E0008DD3E000843
:10013000DD3E00080000000000000000000000009C
:10014000DD3E0008DD3E0008DD3E0008DD3E000823
:10015000DD3E0008DD3E0008DD3E0008DD3E000813
:10016000DD3E0008DD3E0008DD3E00080000000026
:10017000DD3E0008DD3E0008000000000000000039
:10018000DD3E0008DD3E0008DD3E00080000000006
:1001C0000348044B834202D0034B03B118477047E6
:1001D0007000002070000020000000000548064963
:1001E0000B1AD90F01EBA301491002D0034B03B145
:1001F00018477047700000207000002000000000C9
:1002000010B5064C237843B9FFF7DAFF044B13B15E
:100210000448AFF300800123237010BD700000205C
:1002200000000000E03E000808B5044B1BB1044983
:100230000448AFF30080BDE80840CFE700000000AD
:1002400074000020E03E000870B50D4E0D4D761B89
:10025000B61006D0002455F8043B01349847A64256
:10026000F9D1094E094D761B03F03AFEB61006D0BF
:10027000002455F8043B01349847A642F9D170BDDB
:10028000903F0008903F0008943F0008903F00080E
:10029000F0B4860746D0541E002A3CD0CAB20346AA
:1002A00001E0013C37D303F8012B9D07F9D1032C62
:1002B0002AD9CDB245EA05250F2C45EA054534D9A2
:1002C000A4F1100222F00F0C03F120071609674475
:1002D00003F1100242E9045542E902551032BA42D4
:1002E000F8D1721C14F00C0F03EB021204F00F068D
:1002F00013D0331F23F003030433134442F8045B89
:100300009342FBD106F003042CB1CAB21C4403F89B
:10031000012B9C42FBD1F0BC704734461346002CA5
:10032000F3D1F8E714460346C1E71A462646E0E74C
:100330000CB430B59DB020AB0A4D53F8042B02919C
:100340006FF00044069102A90193CDE9044507949A
:1003500000F082F9029B00221A701DB0BDE8304007
:1003600002B070470802FFFF0EB430B59CB01FAB5F
:100370000C4C0D4D53F8042B01930146029106914C
:10038000206802A96FF00044CDE90445079400F00D
:1003900063F9029B00221A701CB0BDE8304003B024
:1003A000704700BF000000200802FFFF00000000AF
:1003B000000000000000000000000000000000003D
:1003C00090F800F06DE9024520F007016FF0000C95
:1003D00010F0070491F820F040F049804FF000043D
:1003E0006FF00700D1E9002391F840F000F1080018
:1003F00082FA4CF2A4FA8CF283FA4CF3A2FA8CF350
:100400004BBBD1E9022382FA4CF200F10800A4FAB6
:100410008CF283FA4CF3A2FA8CF3E3B9D1E904230A
:1004200082FA4CF200F10800A4FA8CF283FA4CF341
:10043000A2FA8CF37BB9D1E9062301F1200182FAFB
:100440004CF200F10800A4FA8CF283FA4CF3A2FA01
:100450008CF3002BC6D0002A04BF04301A4612BA0F
:10046000B2FA82F2FDE8024500EBD2007047D1E912
:10047000002304F00305C4F100004FEAC50514F0A1
:10048000040F91F840F00CFA05F562EA05021CBF72
:1004900063EA050362464FF00004A9E72DE9F0473F
:1004A0008F689F420C461D46164637D8804688897D
:1004B00010F4906F0ED108683D462A46314600F090
:1004C000E9FCA2682368D71B2B44A76023600020A7
:1004D000BDE8F087D1E90417236807EB4707A3EBD2
:1004E000010907EBD7776B1C7F104B44BB423A46A0
:1004F00084BF1F463A46430513D51146404600F0D7
:1005000093FD824608B321694A4600F029FCA3897D
:1005100023F4906343F08003A38107E008681F463B
:10052000CBE7404600F0DAFD824650B1A7EB090365
:100530000AEB09006761C4F810A02060A3602F4691
:10054000BBE72169404600F011FD0C23C8F80030DC
:10055000A38943F04003A3814FF0FF30B8E700BF09
:100560002DE9F04F936883B09146002B6ED0176849
:100570008D6880460C460868083744E0A38913F468
:10058000906F2ED0D4E9041505EB4505A0EB010AC8
:1005900005EBD5750AEB06006D100130A8422A461E
:1005A00084BF05462A465B0537D51146404600F014
:1005B0003BFD00283BD052462169019000F0D0FB62
:1005C000A289019B22F4906242F08002A281A5EBF5
:1005D0000A0203EB0A00656123612060A2603546D0
:1005E000B2465946524600F055FCA068D9F80810AA
:1005F0002368451B8E1B03EB0A00A5602060C9F829
:1006000008601EB3083757E902B6002EFAD0B5428B
:10061000AA46B3D93546B246E3E7404600F05EFD50
:1006200003460028D3D12169404600F09FFC0C23EB
:10063000C8F80030A389002243F040034FF0FF3098
:10064000A381C9E9012203B0BDE8F08F0020C9F8F9
:10065000040003B0BDE8F08F2DE9F04F884689898A
:100660000D069DB092461C46814604D5D8F8102050
:10067000002A00F0F48030238DF82A309AF80030F8
:10068000804D03940021202209918DF82920012614
:10069000002B76D0544603E014F8013F002B7AD0AB
:1006A000252BF9D1B4EB0A0B78D12278002A68D037
:1006B00000234FF0FF32CDE90633013404938DF867
:1006C00053301A93059204E0049A06FA03F3134395
:1006D0000493A246052214F8011B284600F0F0FA04
:1006E000431B0028F0D1049BD80644BF20228DF87C
:1006F000532019079AF8001044BF2B228DF853207D
:100700002A2958D1039A1168043200290392C0F2B1
:10071000818007919AF801102E290AF101045DD019
:10072000DFF870A10322504600F0CAFA48B1049BDA
:10073000A0EB0A004FF0400A0AFA00F0034301342C
:100740000493A24650481AF8011B8DF8281006227F
:1007500000F0B6FA002863D04C4B002B53D003AB0B
:10076000009342464A4B04A94846AFF3008007462F
:100770007A1C06D0099B3B4409939AF80030002B61
:1007800088D1B8F80C305B0654BF09984FF0FF30A1
:100790001DB0BDE8F08FB4EB0A0BF2D052465B46B9
:1007A00041464846FFF77AFE0130EAD0099B22789D
:1007B0005B4409937AE7A1F13002092A0BD8079B21
:1007C0001AF8011F03EB830302EB4303A1F130028C
:1007D000092AF5D907932E295446A1D161782A29EF
:1007E00028D1039B1A680592002A03F1040303939E
:1007F000B8BF4FF0FF3204F10203AEBFA178A17879
:1008000005921C468CE7039B073323F0070308334C
:100810000393AFE7494243F002030791049379E75A
:1008200003AB009342461A4B04A9484600F0CAF8AD
:1008300007469DE7A1F130020023092A04F10104D3
:1008400005933FF66DAF14F8011F03EB830302EB32
:100850004303A1F13002092AF5D9059360E740214D
:1008600000F0E2FBC8F80000C8F8100018B1402200
:10087000C8F81420FFE60C23C9F800304FF0FF3011
:1008800086E700BF483F0008543F00080000000012
:100890009D040008503F00082DE9F84F0C460969F7
:1008A000A568DDF82890A942B8BF2946116094F8E0
:1008B0004350924606461F4615B14A1CCAF800200E
:1008C000236899065DD5DAF800200232CAF80020C4
:1008D000236813F0060F19461ED1E1688A1A002A10
:1008E000D8BF194618DD04F1190B4FF0000805E0D8
:1008F000E568DAF80030ED1A45450CDD01235A466B
:1009000039463046C847013008F10108F0D14FF0B0
:10091000FF30BDE8F88F216894F84330003B18BFE2
:1009200001238A060AD5E1185A1C302081F84300B9
:10093000224494F8451082F84310023304F1430234
:1009400039463046C8470130E1D0236803F006033A
:10095000042B1FD0A3682269934227DD4FF00008C3
:100960009B1A98441A34002501E045451EDA0123FC
:10097000224639463046C847013005F10105F4D119
:10098000C5E713F0060F14D094F84330003B18BFAE
:100990000123D3E7D4E90231DAF800002269091A09
:1009A000934221EAE178DBDC0029DBDC0020BDE8B2
:1009B000F88FE168DAF800208A1A002AD8BF1946B1
:1009C00091DCA9E72DE9F04385B00D7EDDF830C05C
:1009D0000C4606461746984601F1430E002D37D0C7
:1009E000A5F15801CBB2202B00F29F80202900F204
:1009F0009C80DFE811F0A4009A009A009A009A0007
:100A00009A009A009A009A009A009A00DE00EB0081
:100A10009A009A009A009A00EB009A009A009A00B5
:100A20009A002100B600C7009A009A00CC009A00F4
:100A3000B6009A009A00660023681A0640F11581F4
:100A4000DCF800306269191DCCF800101B681A60D0
:100A5000002375462361CDF800803B4603AA21465A
:100A60003046FFF719FF013020D023692A46394666
:100A70003046C047013019D02368E16803989B07CE
:100A800019D50B1A002B16DD04F11909002504E015
:100A9000E16803980B1AAB420DDD01234A46394643
:100AA0003046C047013005F10105F1D14FF0FF306C
:100AB00005B0BDE8F0838842B8BF084605B0BDE880
:100AC000F0832368DFF8F091782284F84520190636
:100AD000DCF800203DD5111DCCF800101168D807B6
:100AE00044BF43F020032360002940F0B78023680F
:100AF00023F0200323601023002284F84320606841
:100B0000A0600028C0F2A180226822F004022260C6
:100B100000297CD1002840F09A807546082B00F00F
:100B20008680AEEB0503236195E7012384F84250EC
:100B3000236104F14205002384F843308BE75823F6
:100B400084F845302368DFF87491DCF8002019063A
:100B5000C1D45D0640F18480111DCCF800101188CD
:100B6000BDE72368180640F18E80DCF800301A1DBE
:100B70001968CCF800206F2DDFF840910CBF0823D6
:100B80000A23B9E7236843F0200323609AE7DCF8DF
:100B900000306268191DCCF800101D68002128463D
:100BA00000F08EF8002800F08580401B6060206116
:100BB000C1E7DCF800301A68191D0123CCF80010D9
:100BC00004F1420584F842202361B4E723681A0641
:100BD00001D45D0665D4DCF800100A680431CCF855
:100BE00000101146002A03DBDFF8D0900A2386E7C5
:100BF0006268A2602D20002AC1F1000184F8430040
:100C000002DB23F004032360DFF8B0900A2375466B
:100C1000B1FBF3F203FB121C0846984219F80C10C2
:100C200005F8011D1146F3D2082B7FF47AAF236833
:100C3000D9077FF576AF626823699A423FF771AFB3
:100C4000302305F8013C013D6BE70029DFD199F81D
:100C5000002084F8422004F142055FE710234BE7AF
:100C6000101D1168CCF8000039E713F0400FDCF8D4
:100C70000030626903F10401CCF800101B6814BF56
:100C80001A801A60E4E613F0400FDCF8003003F13C
:100C900004020DBF19681988CCF80020CCF8002098
:100CA00069E7DCF80020B2F900100432CCF800202B
:100CB0000A4697E760687AE7703F00085C3F0008E3
:100CC00001F0FF01102A2BDB10F0070F08D010F8FD
:100CD000013B013A8B422DD010F0070F42B3F6D101
:100CE000F0B441EA012141EA014122F007047FF01A
:100CF00000070023F0E80256083C85EA010586EA71
:100D0000010685FA47F5A3FA87F586FA47F6A5FAAC
:100D100087F68EB9EED1F0BC01F0FF0102F00702B8
:100D200032B110F8013B013A83EA010313B1F8D163
:100D30000020704701387047002D06BF3546033844
:100D4000073815F0010F07D1013015F4807F02BF7D
:100D5000013015F4C03F0130F0BC0138704700BFCE
:100D6000844641EA000313F003036DD1403A41D3B6
:100D700051F8043B40F8043B51F8043B40F8043B75
:100D800051F8043B40F8043B51F8043B40F8043B65
:100D900051F8043B40F8043B51F8043B40F8043B55
:100DA00051F8043B40F8043B51F8043B40F8043B45
:100DB00051F8043B40F8043B51F8043B40F8043B35
:100DC00051F8043B40F8043B51F8043B40F8043B25
:100DD00051F8043B40F8043B51F8043B40F8043B15
:100DE00051F8043B40F8043B51F8043B40F8043B05
:100DF000403ABDD2303211D351F8043B40F8043BA5
:100E000051F8043B40F8043B51F8043B40F8043BE4
:100E100051F8043B40F8043B103AEDD20C3205D3B4
:100E200051F8043B40F8043B043AF9D2043208D0AC
:100E3000D2071CBF11F8013B00F8013B01D30B881E
:100E400003806046704700BF082A13D38B078DD0FC
:100E500010F003038AD0C3F10403D21ADB071CBFCE
:100E600011F8013B00F8013B80D331F8023B20F838
:100E7000023B7BE7043AD9D3013A11F8013B00F871
:100E8000013BF9D20B7803704B7843708B788370F9
:100E9000604670478842F0B40DD98B1883420AD956
:100EA000841832B1224613F8014D02F8014D9942DF
:100EB000F9D1F0BC70470F2A0ED80346541E002A01
:100EC000F7D001340C44013B11F8012B03F8012F3A
:100ED000A142F9D1F0BC704740EA01039B073FD122
:100EE000A2F1100323F00F0401F1200727441B098E
:100EF00001F1100400F1100554F8106C45F8106C65
:100F000054F80C6C45F80C6C54F8086C45F8086CF7
:100F100054F8046C45F8046C1034BC4205F110051B
:100F2000EAD1013312F00C0F01EB031102F00F04B0
:100F300000EB031317D0043C24F0030CA5089C44D9
:100F40001C1F0E4656F8047B44F8047F6445F9D113
:100F50006C1C03EB840301EB840102F00302ADE798
:100F6000541E0346ADE72246A8E700BF002954D02F
:100F700030B551F8043C83B0002BA1F10404B8BF94
:100F8000E418019000F0E4F8264A019813682BB1A8
:100F9000A3420CD921686518AB422CD06360146061
:100FA00003B0BDE8304000F0D5B8A3420FD81A46D0
:100FB0005B68002BF9D111685518AC4217D02DD3BE
:100FC0006360546003B0BDE8304000F0C3B81168FE
:100FD0005518A54215D021D821686518AB42EFD12C
:100FE000D3E900532944636021605460D8E7236843
:100FF00019441160D4E7D3E90053294463602160A8
:10100000CDE7246821445418A3421160C8D1D3E924
:101010000043214453601160C2E770470C23036012
:10102000BEE700BF8C000020F8B5CD1C25F00305FD
:1010300008350C2D38BF0C25002D064623DBA942B0
:1010400021D8254F00F084F83A6822B3144603E013
:1010500063682246FBB11C4623685B1BF8D40B2B4C
:1010600015D8636894420CBF3B605360304600F073
:1010700071F804F10B0020F00700231DC21A01D003
:101080001B1AA350F8BD0C2333600020F8BD236069
:101090001C442560EAE77968C9B12946304600F06A
:1010A00045F8431C0CD0C41C24F00304A04205D016
:1010B000211A304600F03AF8013001D02560D5E71A
:1010C0000C233046336000F045F80020F8BD304670
:1010D00000F02CF87860E0E78C000020F8B51446AA
:1010E000F9B1CAB106460D4600F036F8A04202D367
:1010F0002F463846F8BD21463046FFF795FF074694
:101100000028F6D022462946FFF72AFE3046294617
:10111000FFF72CFF3846F8BD2746FFF727FF384674
:10112000F8BDBDE8F8401146FFF77EBF38B5074D62
:101130000022044608462A6000F018F8431C00D03C
:1011400038BD2B68002BFBD0236038BDD8010020B0
:10115000704700BF704700BF51F8040C0028A0F191
:101160000400BCBF0B58C018704700BF044A0549B3
:101170001368002B08BF0B461844106018467047D0
:1011800094000020E001002053B94AB9002908BFAB
:1011900000281CBF4FF0FF314FF0FF3000F06EB958
:1011A000ADF1080C6DE904CE00F006F8DDF804E0BE
:1011B000DDE9022304B070472DE9F047089D04469D
:1011C0008C46002B40F083808A42174647D9B2FAFA
:1011D00082F242B1C2F1200024FA00F0914097401F
:1011E00040EA010C94404FEA1748230CBCFBF8F688
:1011F0001FFA87FE08FB16C143EA014306FB0EF106
:10120000994209D9FB1806F1FF3080F01981994203
:1012100040F21681023E3B445B1AA4B2B3FBF8F0E5
:1012200008FB103344EA034400FB0EFEA64509D92F
:101230003C1900F1FF3380F00581A64540F20281A0
:1012400002383C4440EA0640A4EB0E0400261DB1DF
:10125000D4400023C5E900433146BDE8F08702B918
:10126000FFDEB2FA82F2002A50D1CB1B4FEA174EB2
:101270001FFA87F80126B3FBFEFC210C0EFB1C3382
:1012800041EA034108FB0CF38B4207D979180CF1B2
:10129000FF3002D28B4200F2E9808446C91AA3B221
:1012A000B1FBFEF00EFB101143EA014408FB00F80D
:1012B000A04507D93C1900F1FF3302D2A04500F246
:1012C000D9801846A4EB080440EA0C40BFE78B42E3
:1012D00009D9002D00F0B1800026C5E90001304693
:1012E0003146BDE8F087B3FA83F6002E4AD18B422F
:1012F00002D3824200F2B880841A61EB030101201C
:101300008C46002DA8D0C5E9004CA5E7C2F120030A
:1013100020FA03F6974001FA02F04FEA174ED9403F
:101320003043030CB1FBFEF61FFA87F80EFB1611D3
:1013300043EA014306FB08F1994204FA02F409D991
:10134000FB1806F1FF3C80F08D80994240F28A80C4
:10135000023E3B445B1A81B2B3FBFEF00EFB10333E
:1013600041EA034100FB08F38B4207D9791800F1E9
:10137000FF3C73D28B4271D902383944CB1A40EA10
:10138000064678E7C6F1200C03FA06F422FA0CF3BD
:101390001C4320FA0CF701FA06F34FEA144E21FA27
:1013A0000CF11F433B0CB1FBFEF91FFA84F80EFB56
:1013B000191143EA014109FB08FA8A4502FA06F2CB
:1013C00000FA06F308D9611809F1FF3048D28A45BE
:1013D00046D9A9F102092144A1EB0A01BFB2B1FB30
:1013E000FEF00EFB101147EA014700FB08F8B84574
:1013F00007D9E71900F1FF312ED2B8452CD90238B0
:10140000274440EA0940A7EB0807A0FB02894F45A3
:10141000C64649461AD317D05DB1B3EB0E0267EB4F
:10142000010707FA0CFCF2404CEA0202F740C5E95A
:10143000002700263146BDE8F0872E4628460BE7F8
:101440000646E9E61846FDE64345E5D2B8EB020E4E
:1014500069EB04010138DFE70846D2E760468DE713
:101460008146B9E7664675E730464AE7ACF1020CBB
:10147000394413E702383C4424E700BF704700BFFB
:1014800030B589B00024039404940594069407941D
:10149000164BDA6C42F00402DA64DA6C02F00402F1
:1014A0000092009ADA6C42F00102DA64DA6C02F01F
:1014B00001020192019ADA6C42F00202DA64DB6CFA
:1014C00003F002030293029B094D2246082128469D
:1014D00002F038F90823039301230493059406943A
:1014E00003A9284602F06EF809B030BD0010024092
:1014F000000400481F4B1B784BB91F4B1B685B6BEC
:101500009BB21E4A13801B4B01221A707047194B65
:101510001B78DBB2012B00D07047174B1B685B6B4D
:101520009BB217490B80154B1A8892B20B889BB25D
:101530009A4210D20B889BB2104A128892B29B1A20
:101540009BB2104A138000230C4A13800C4A13806C
:10155000084A1370E0E7094B1B88094A128892B2C7
:1015600012FA83F3C3F5434350339BB2054A138009
:10157000E9E700BFA4000020A8000020A20000208E
:10158000A00000209800002072B6FEE700B589B0E8
:101590000023059306930793019302930393049307
:1015A0001648174A02601F22426083604CF2503294
:1015B000C26003614361836100F04AFDB8B9002352
:1015C00005930693079305A90C4801F031F880B9FB
:1015D0000A2301930123029300220392049201A99A
:1015E000064800F05DFE30B909B05DF804FBFFF776
:1015F000CBFFFFF7C9FFFFF7C7FF00BFA800002020
:10160000002C014008B50B480B4B03604FF4E1334D
:10161000436000238360C36003610C2242618361E5
:10162000C3610362436202F0DEFB00B908BDFFF74D
:10163000ABFF00BF040100200044004010B592B091
:1016400000240B940C940D940E940F941094119408
:101650002C2221466846FEF71BFE1E481E4B0360E7
:101660001F23436084604FF6FF73C36004614461CD
:10167000846100F08DFC28BB164800F0B9FC18BB53
:1016800070230B9300220C920D920E920F921092E7
:1016900011920BA90F4800F047FDB8B90023009341
:1016A00001930293039304934FF4005205920A931B
:1016B0006946084800F0F4FF50B9064800F02AF9DE
:1016C00012B010BDFFF760FFFFF75EFFFFF75CFF92
:1016D000FFF75AFF880100200044014000B597B091
:1016E0004422002105A8FEF7D3FD002300930193B7
:1016F0000293039304934FF4007002F039F800282A
:1017000031D102F025F81B4AD2F8903023F01803AB
:10171000C2F8903014230593012307930B93002202
:101720000C9260220D9202220F92109311931023BB
:101730001293072313931492159205A801F0F8F859
:1017400098B90F230093032301930023029303937B
:1017500004930121684601F02BFC40B901F02AFFF7
:1017600017B05DF804FBFFF70FFFFFF70DFFFFF762
:101770000BFF00BF0010024008B501F001F8FFF7B1
:10178000ADFFFFF77DFEFFF701FFFFF73BFFFFF720
:1017900055FF184C204600F0BBFA174D284600F0C4
:1017A00085FA0021284600F0E7FD144B0A225A630F
:1017B0000021204600F078FE114B1B889BB2114A95
:1017C000A2FB03235B09104A136012680F4C1049F7
:1017D0002046FEF7C9FD2046FEF7F2FD4FF4FA73EE
:1017E00082B221460B4802F05AFA4FF47A7000F0A8
:1017F000E9FFE1E7A8000020880100200044014043
:101800009800002009CB3D8D9C000020F4000020B2
:10181000F83E000804010020FEE7FEE7FEE7FEE7D1
:10182000FEE770477047704708B500F0B9FF08BD84
:1018300008B5024800F0A7FA08BD00BFA8000020C4
:1018400082B00A4B1A6E42F001021A661A6E02F05A
:1018500001020092009A9A6D42F080529A659B6D47
:1018600003F080530193019B02B0704700100240C7
:1018700010B588B000230393049305930693079350
:101880000268184B9A4201D008B010BD03F56443BA
:101890001A6E42F400621A661A6E02F40062019235
:1018A000019ADA6C42F00102DA64DB6C03F00103A6
:1018B0000293029B4FF4807303930223049300244A
:1018C000059406940123079303A94FF0904001F07B
:1018D00079FE224621461B2001F0A4FF1B2001F0C7
:1018E000D5FFD1E7002C01400268094B9A4200D095
:1018F000704782B003F54C431A6E42F400321A6608
:101900001B6E03F400330193019B02B0704700BFCC
:101910000044014000B587B0002301930293039374
:10192000049305930268104B9A4202D007B05DF809
:1019300004FB03F54C43DA6C42F00102DA64DB6C21
:1019400003F001030093009B4023019302230293C1
:101950000023039304930E23059301A94FF09040B5
:1019600001F030FEE2E700BF0044014070B59CB0DA
:10197000044600211791189119911A911B91542234
:1019800002A8FEF785FC22681F4B9A4201D01CB0CA
:1019900070BD0223029300230B9302A801F096FC72
:1019A00000282ED1194B9A6D42F400329A659A6D37
:1019B00002F400320092009ADA6C42F00102DA641A
:1019C000DB6C03F001030193019B042317930226B0
:1019D00018960025199503241A9407231B9317A919
:1019E0004FF0904001F0EEFD4FF40043179318962E
:1019F00019951A941B9417A94FF0904001F0E2FD3D
:101A0000C5E7FFF7C1FDCDE70044004000100240EC
:101A100030B4036A23F001030362036A44688269F5
:101A200022F4803222F073020D682A4323F002036D
:101A30008D682B43144DA84207D005F5A055A84248
:101A400003D005F58065A84205D123F00803CD68D1
:101A50002B4323F004030C4DA84207D005F5A055F5
:101A6000A84203D005F58065A84205D124F440754D
:101A70004C692C438D692C43446082614A684263FF
:101A8000036230BC704700BF002C014030B4036AD1
:101A900023F480730362036A4468C26922F48032CB
:101AA00022F073020D682A4323F400738D6843EA21
:101AB0000523124DA84219D0104DA84207D005F5B4
:101AC000A055A84203D005F58065A84207D124F4AB
:101AD00040544D6944EA05148D6944EA0514446094
:101AE000C2614A68C263036230BC704723F400637A
:101AF000CD6843EA052323F48063DDE7002C014031
:101B000030B4036A23F480530362026A4468C369F1
:101B100023F0807323F4E6430D6843EA052322F49F
:101B200000528D6842EA05320B4DA84207D005F5F8
:101B3000A055A84203D005F58065A84204D124F43D
:101B400080444D6944EA85144460C3614B68036472
:101B5000026230BC704700BF002C014030B4036A01
:101B600023F480330362036A4468426D22F48032B6
:101B700022F070020D682A4323F400338D6843EA93
:101B800005430B4DA84207D005F5A055A84203D048
:101B900005F58065A84204D124F480344D6944EAF7
:101BA0000524446042654A688265036230BC704720
:101BB000002C014030B4036A23F480130362026AEC
:101BC0004468436D23F0807323F4E0430D6843EAD7
:101BD000052322F400128D6842EA05520B4DA842FB
:101BE00007D005F5A055A84203D005F58065A842A9
:101BF00004D124F480244D6944EA8524446043657B
:101C00004B68C365026230BC704700BF002C0140C6
:101C100030B4056A25F0100505628469056A24F46C
:101C2000407444EA022424F470441B039BB223430F
:101C300025F0A005090101F0A0012943836101629B
:101C400030BC704730B4056A25F480750562C469FC
:101C5000056A24F00304144324F0F0041B01DBB2F2
:101C6000234325F42065090201F420612943C3615F
:101C7000016230BC704730B4056A25F480550562B6
:101C8000C469056A24F4407444EA022424F47044CC
:101C90001B039BB2234325F42045090301F4204193
:101CA0002943C361016230BC7047000090F83D30A9
:101CB000DBB2012B21D1022380F83D300368124AA8
:101CC00093420CD0B3F1804F09D002F5A052934259
:101CD00005D01A6842F001021A6000207047996826
:101CE0000A4A0A40062A0AD0B2F5803F09D01A688B
:101CF00042F001021A600020704701207047002066
:101D000070470020704700BF002C01400700010011
:101D100090F83D30DBB2012B26D1022380F83D3014
:101D20000268D36843F00103D3600368114A934209
:101D30000CD0B3F1804F09D002F5A052934205D0E8
:101D40001A6842F001021A600020704799680A4A36
:101D50000A40062A0AD0B2F5803F09D01A6842F03C
:101D600001021A6000207047012070470020704770
:101D700000207047002C01400700010070477047A9
:101D800070477047704710B5044603681A6912F02F
:101D9000020F11D0DA6812F0020F0DD06FF00202BC
:101DA0001A610123037703689B6913F0030F79D04D
:101DB000FFF7A0FB0023237723681A6912F0040FB2
:101DC00012D0DA6812F0040F0ED06FF004021A611C
:101DD0000223237723689B6913F4407F68D0204651
:101DE000FFF788FB0023237723681A6912F0080F96
:101DF00012D0DA6812F0080F0ED06FF008021A61E4
:101E0000042323772368DB6913F0030F57D02046A0
:101E1000FFF770FB0023237723681A6912F0100F75
:101E200012D0DA6812F0100F0ED06FF010021A61A3
:101E3000082323772368DB6913F4407F46D02046CC
:101E4000FFF758FB0023237723681A6912F0010F6C
:101E500003D0DA6812F0010F3FD123681A6912F03B
:101E6000800F03D0DA6812F0800F3DD123681A6921
:101E700012F4807F03D0DA6812F0800F3BD1236820
:101E80001A6912F0400F03D0DA6812F0400F39D10E
:101E900023681A6912F0200F03D0DA6812F0200FBD
:101EA00037D110BDFFF76CFF2046FFF76AFF81E7CF
:101EB0002046FFF765FF2046FFF763FF92E72046C5
:101EC000FFF75EFF2046FFF75CFFA3E72046FFF722
:101ED00057FF2046FFF755FFB4E76FF001021A6184
:101EE0002046FFF74CFFB8E76FF080021A612046EA
:101EF00000F01BFCBAE76FF480721A61204600F014
:101F000015FCBCE76FF040021A612046FFF73AFF6C
:101F1000BEE76FF020021A61204600F005FCC0E722
:101F200003681A4A904202D0B0F1804F03D123F0E7
:101F300070034A681343154A90420AD0B0F1804FAB
:101F400007D002F5A052904203D002F58062904281
:101F500003D123F44073CA68134323F080034A6912
:101F6000134303608B68C3620B688362074B98421C
:101F700007D003F5A053984203D003F5806398423D
:101F800001D10B690363012343617047002C0140B9
:101F900060B310B5044690F83D3013B3022384F8C3
:101FA0003D30214651F8040BFFF7BAFF012384F8B6
:101FB000483084F83E3084F83F3084F8403084F86C
:101FC000413084F8423084F8433084F8443084F857
:101FD000453084F8463084F8473084F83D3000209E
:101FE00010BD80F83C30FFF77FFCD7E70120704739
:101FF00060B310B5044690F83D3013B3022384F863
:102000003D30214651F8040BFFF78AFF012384F885
:10201000483084F83E3084F83F3084F8403084F80B
:10202000413084F8423084F8433084F8443084F8F6
:10203000453084F8463084F8473084F83D3000203D
:1020400010BD80F83C30FFF799FED7E701207047BC
:1020500060B310B5044690F83D3013B3022384F802
:102060003D30214651F8040BFFF75AFF012384F855
:10207000483084F83E3084F83F3084F8403084F8AB
:10208000413084F8423084F8433084F8443084F896
:10209000453084F8463084F8473084F83D300020DD
:1020A00010BD80F83C30FFF7E3FBD7E70120704715
:1020B00030B4036A23F010030362036A4468826940
:1020C00022F0807222F4E6420D6842EA052223F0F3
:1020D00020038D6843EA0513124DA84219D0114D13
:1020E000A84207D005F5A055A84203D005F58065A4
:1020F000A84207D124F440644D6944EA85048D69FF
:1021000044EA8504446082614A688263036230BCA9
:10211000704723F08003CD6843EA051323F04003A2
:10212000DDE700BF002C014038B590F83C30012BB2
:1021300000F08C8004460D46012380F83C30142AC0
:102140001ED8DFE802F00B1D1D1D211D1D1D351DB4
:102150001D1D481D1D1D5C1D1D1D6F000068FFF726
:1021600057FC2268936943F00803936122689369DE
:1021700023F0040393612268936929690B439361F7
:10218000002084F83C0038BD0068FFF791FF22680A
:10219000936943F4006393612268936923F4806335
:1021A000936122689369296943EA01239361E7E710
:1021B0000068FFF76BFC2268D36943F00803D36122
:1021C0002268D36923F00403D3612268D3692969A3
:1021D0000B43D361D4E70068FFF792FC2268D36910
:1021E00043F40063D3612268D36923F48063D3612D
:1021F0002268D369296943EA0123D361C0E70068F3
:10220000FFF7ACFC2268536D43F008035365226866
:10221000536D23F0040353652268536D29690B4302
:102220005365ADE70068FFF7C5FC2268536D43F4C2
:10223000006353652268536D23F4806353652268FD
:10224000536D296943EA0123536599E702209AE710
:1022500070B4046A24F0010404628469056A0F4EB4
:10226000B04209D0B0F1804F06D006F5A056B0427A
:1022700002D044F0010202E024F00304224322F0E1
:10228000F0021B01DBB2134325F00A0201F00A0140
:1022900011438361016270BC704700BF002C014094
:1022A00038B590F83C30012B52D004460D4601233E
:1022B00080F83C30C2B1042A27D0082A37D0CB6836
:1022C0004A6809680068FFF7D6FC2268D36923F4DE
:1022D0004063D3612268D369A96843EA0123D361CB
:1022E000002084F83C0038BDCB684A680968006863
:1022F000FFF7AEFF2268936923F00C039361226815
:102300009369A9680B439361EAE7CB684A68096857
:102310000068FFF77DFC2268936923F440639361B2
:1023200022689369A96843EA01239361D8E7CB68DF
:102330004A6809680068FFF785FC2268D36923F0C2
:102340000C03D3612268D369A9680B43D361C7E743
:102350000220C8E710B401F01F01012303FA01F4C1
:10236000036A23EA04030362036A02FA01F10B43DE
:1023700003625DF8044B704710B504460846002917
:1023800032D194F83E30DBB2013B18BF0123002B61
:102390007FD1002853D1022384F83E300122014628
:1023A0002068FFF7D7FF23683D4A934207D002F524
:1023B000A052934203D002F58062934203D15A6C3B
:1023C00042F400425A642368354A934253D0B3F131
:1023D000804F50D002F5A05293424CD01A6842F080
:1023E00001021A60002055E004290CD0082911D000
:1023F0000C2916D010291BD094F84330DBB2013BD6
:1024000018BF0123C3E794F83F30DBB2013B18BF8C
:102410000123BCE794F84030DBB2013B18BF012335
:10242000B5E794F84130DBB2013B18BF0123AEE7BA
:1024300094F84230DBB2013B18BF0123A7E7042820
:1024400009D008280BD00C280DD010280FD002235B
:1024500084F84330A2E7022384F83F309EE702234A
:1024600084F840309AE7022384F8413096E702234B
:1024700084F8423092E799680A4A0A40062A0AD04C
:10248000B2F5803F09D01A6842F001021A600020BC
:1024900000E0012010BD0020FCE70020FAE700BFAB
:1024A000002C01400700010010B504460B4611BB8B
:1024B00090F83E00C0B2002B39D194F84420D2B23B
:1024C000012840F0AB80012A40F0A980002B3ED1CA
:1024D000022284F83E20002B55D1022284F84420A9
:1024E0000C2B65D8DFE803F05F6464647A6464648D
:1024F000806464648600042909D008290BD00C2963
:102500000DD010290FD090F84300C0B2D3E790F857
:102510003F00C0B2CFE790F84000C0B2CBE790F8E0
:102520004100C0B2C7E790F84200C0B2C3E7042B35
:1025300005D0082B07D094F84720D2B2C0E794F812
:102540004520D2B2BCE794F84620D2B2B8E7042BBB
:1025500009D0082B0BD00C2B0DD0102B0FD0022242
:1025600084F84320B7E7022284F83F20B3E7022231
:1025700084F84020AFE7022284F84120ABE7022232
:1025800084F84220A7E7042B05D0082B07D00222AD
:1025900084F84720A4E7022284F84520A0E702221D
:1025A00084F846209CE72168CA6842F00202CA60AB
:1025B000012219462068FFF7CDFE23681A4A93428C
:1025C0001ED0B3F1804F1BD002F5A052934217D01A
:1025D0001A6842F001021A60002020E02168CA68EF
:1025E00042F00402CA60E3E72168CA6842F00802C8
:1025F000CA60DDE72168CA6842F01002CA60D7E706
:1026000099680A4A0A40062A0AD0B2F5803F09D0E2
:102610001A6842F001021A60002000E0012010BD9B
:102620000020FCE70020FAE7002C01400700010031
:1026300090F83C30012B2FD030B4012380F83C308F
:10264000022380F83D30026853689568134CA2421B
:102650001DD023F070030C682343536003680F4AB6
:10266000934206D0B3F1804F03D002F5A0529342BB
:1026700004D125F080058A6815439D60012380F808
:102680003D30002380F83C30184630BC704723F4BE
:1026900070034C682343DCE702207047002C0140A4
:1026A00090F83C30012B3BD010B4012380F83C3033
:1026B000CB6823F440738A68134323F480634A6829
:1026C000134323F400630A68134323F480530A6915
:1026D000134323F400534A69134323F480438A6A63
:1026E000134323F470238A6943EA024302680D4CC2
:1026F000A24207D05364002380F83C3018465DF8AE
:10270000044B704723F470034C6A43EA045323F0EC
:102710008073CC69234323F00073096A0B43E9E714
:1027200002207047002C014070477047704700003E
:10273000104B1B780BB90120704710B504464FF4BD
:102740007A70B0FBF3F30C4A1068B0FBF3F001F0C1
:10275000ABF868B90F2C01D901200AE0002221460C
:102760004FF0FF3001F05EF8044B1C60002000E0E9
:10277000012010BD640000206C00002068000020D3
:1027800010B5032001F03CF80020FFF7D1FF10B195
:102790000124204610BD0446FFF752F8F9E7000077
:1027A000034B1B78034A11680B441360704700BF4A
:1027B00064000020D4010020014B1868704700BF5E
:1027C000D401002038B50446FFF7F6FF0546B4F102
:1027D000FF3F02D0044B1B781C44FFF7EDFF401B6A
:1027E000A042FAD338BD00BF6400002030B583B0EA
:1027F0000446204B9B6D13F0805F0BD000F0B0FFC0
:10280000B0F5007F17D0802C1FD82DD0702C2DD084
:1028100000211BE0174DAB6D43F08053AB65AB6DF2
:1028200003F080530193019B00F09AFFAB6D23F0FE
:102830008053AB65E4E7802C03D9A02C03D9022197
:1028400004E0002102E0012100E003210A4A1368AC
:1028500023F007030B431360136803F007038B4255
:1028600006D1002003B030BD0221EFE70121EDE7E2
:102870000120F7E70010024000200240284A936838
:10288000D26802F0030213F00C030AD00C2B06D01E
:10289000042B1FD0082B20D00020024610E0012A74
:1028A000F6D11F4A126812F0080F0CD11C4AD2F858
:1028B0009420C2F303221B4951F8222043B1002087
:1028C0000C2B0DD07047164A1268C2F30312F2E7C0
:1028D0001046F5E714480022F2E714480022EFE71B
:1028E0000F4BDB6803F00303022B16D0032B00D140
:1028F0000E4A0B4BD868C0F302100130D968C1F3FF
:10290000062102FB01F2B2FBF0F2D868C0F341608D
:1029100001304000B2FBF0F0D4E7034AE9E700BF22
:1029200000100240183F00080024F40000127A0052
:10293000002800F02783F0B583B00446AE4B9D68B5
:1029400005F00C05DE6806F00306036813F0100FAF
:102950005AD0E5B10C2D18D0A369002B00F0BB8034
:10296000A54A136843F001031360FFF725FF0746EC
:10297000A14B1B6813F0020F40F09A80FFF71CFF79
:10298000C01B0228F4D9032007E3012EE4D19A4B9F
:102990001B6813F0020F03D0A369002B00F0F48230
:1029A000206A954B1B6813F0080F5BD0924B1B6895
:1029B00003F0F00398425CD88F4B1A6842F008028B
:1029C0001A601A6822F0F002216A0A431A605A68F3
:1029D00022F47F42E16942EA01225A60002D60D070
:1029E000FFF74CFF844B9B68C3F30313834AD35C0C
:1029F00003F01F03D840824B1860824B1868FFF722
:102A000097FE002840F0C982236813F0010F00F000
:102A10008180082D75D00C2D71D06368B3F5803F8F
:102A200000F09780B3F5A02F00F09980724B1A68E0
:102A300022F480321A601A6822F480221A606368D5
:102A4000002B00F09980FFF7B7FE07466A4B1B6822
:102A500013F4003F5ED1FFF7AFFEC01B6428F5D929
:102A600003209AE2644BD3F894301B0903F0F0037F
:102A7000A0E7FFF7BBFE002840F088825E4B1A6893
:102A800042F008021A601A6822F0F002216A0A4332
:102A90001A605A6822F47F42E16942EA01225A60D0
:102AA0009EE7206AFFF7A2FE002899D0012074E279
:102AB000514B1A6842F008021A601A6822F0F002BC
:102AC000216A0A431A605A6822F47F42E16942EAA5
:102AD00001225A6098E7484A136823F00103136003
:102AE000FFF76AFE0746444B1B6813F0020F8BD0BA
:102AF000FFF762FEC01B0228F5D903204DE2032E2A
:102B00008BD13D4B1B6813F4003F03D06368002B4F
:102B100000F03E82236813F0020F4FD0042D3CD00A
:102B20000C2D38D0E368002B77D0334A136843F478
:102B300080731360FFF740FE06462F4B1B6813F4AB
:102B4000806F61D1FFF738FE801B0228F5D9032082
:102B500023E2294A136843F4803313606FE703F1DB
:102B60008043A3F53C331A6842F480221A601A6845
:102B700042F480321A6062E7FFF71EFE07461E4BE2
:102B80001B6813F4003FC5D0FFF716FEC01B642876
:102B9000F5D9032001E2022EC4D1174B1B6813F4B0
:102BA000806F03D0E368002B00F0F481124A536871
:102BB00023F0F853216943EA01635360236813F05B
:102BC000080F55D06369002B3BD00B4AD2F89430E4
:102BD00043F00103C2F89430FFF7EEFD0646064BC2
:102BE000D3F8943013F0020F42D1FFF7E5FD801BBC
:102BF0000228F4D90320D0E100100240003F000871
:102C00006C00002068000020B44A536823F0F85399
:102C1000216943EA01635360D0E7B04A136823F4A3
:102C200080731360FFF7C8FD0646AC4B1B6813F4B6
:102C3000806FC3D0FFF7C0FD801B0228F5D90320A9
:102C4000ABE1A64AD2F8943023F00103C2F89430E5
:102C5000FFF7B2FD0646A14BD3F8943013F0020FF4
:102C600006D0FFF7A9FD801B0228F4D9032094E1C8
:102C7000236813F0040F7AD0984B9B6D13F0805F9C
:102C800036D1964B9A6D42F080529A659B6D03F057
:102C900080530193019B0126914B1B6813F4807FA5
:102CA00028D0A368012B39D0052B3FD08B4BD3F80C
:102CB000902022F00102C3F89020D3F8902022F057
:102CC0000402C3F89020A368002B3DD0FFF774FDE9
:102CD0000746824BD3F8903013F0020F46D1FFF72E
:102CE0006BFDC01B41F288339842F2D9032054E1B6
:102CF0000026D1E77A4A136843F480731360FFF724
:102D00005BFD0746764B1B6813F4807FC9D1FFF744
:102D100053FDC01B0228F5D903203EE16F4AD2F8CB
:102D2000903043F00103C2F89030CCE76B4BD3F8FE
:102D3000902042F00402C3F89020D3F8902042F093
:102D40000102C3F89020BEE7FFF736FD0746634B4C
:102D5000D3F8903013F0020F08D0FFF72DFDC01B01
:102D600041F288339842F2D9032016E1E6B923688C
:102D700013F0200F35D0636AE3B1584AD2F8983087
:102D800043F00103C2F89830FFF716FD0646534B97
:102D9000D3F8983013F0020F23D1FFF70DFD801BFD
:102DA0000228F4D90320F8E04C4A936D23F08053B5
:102DB0009365DCE7494AD2F8983023F00103C2F862
:102DC0009830FFF7F9FC0646444BD3F8983013F0DF
:102DD000020F06D0FFF7F0FC801B0228F4D9032075
:102DE000DBE0A36A002B00F0D780022B27D00C2D4C
:102DF00000F0D780394B1A6822F080721A601B6885
:102E000013F0006F04D1354AD36823F00303D36075
:102E1000324AD36823F0887323F48033D360FFF7FA
:102E2000CBFC04462D4B1B6813F0007F00F0A880FC
:102E3000FFF7C2FC001B0228F4D90320ADE0274BAA
:102E4000DB6803F00301E26A914209D00C2D00F027
:102E5000A680224B1B6813F0806F2BD001209CE0D2
:102E600003F07002216B0139B2EB011FEED103F4C4
:102E7000FE42616BB2EB012FE8D103F07842A16B07
:102E8000B2EBC16FE2D103F4C001E26B5208013A28
:102E9000B1EB425FDAD103F0C063226C5208013A11
:102EA000B3EB426FD2D10D4B1B6813F0007F4DD0B6
:102EB000002072E0094A136823F080731360FFF763
:102EC0007BFC0546054B1B6813F0007F0AD0FFF71B
:102ED00073FC401B0228F5D903205EE0001002407D
:102EE00000700040304AD36830491940E36A206BD3
:102EF000013843EA0013606B43EA0023E06B4008AB
:102F0000013843EA4053206C4008013843EA4063EB
:102F1000A06B43EAC0630B43D360136843F0807334
:102F20001360D36843F08073D360FFF745FC044619
:102F30001D4B1B6813F0007F06D1FFF73DFC001B03
:102F40000228F5D9032028E0002026E0164B1A6855
:102F500042F080721A60DA6842F08072DA60FFF73D
:102F60002BFC0446104B1B6813F0007F06D1FFF7C3
:102F700023FC031B022BF5D903200EE000200CE0FC
:102F800000200AE001207047012006E0012004E053
:102F9000012002E0012000E0002003B0F0BD01208C
:102FA000FBE70120F9E700BF001002408C809D0183
:102FB000002800F0988070B50C4605464E4B1B6803
:102FC00003F007038B420BD24B4A136823F007032D
:102FD0000B431360136803F007038B4240F08580B6
:102FE0002B6813F0010F39D06B68032B09D0022B2B
:102FF00026D063BB414A126812F0020F06D10120AD
:1030000070E03E4A126812F0007F70D03B498A6837
:1030100022F0030213438B60FFF7CEFB0646374BCB
:103020009B6803F00C036A68B3EB820F16D0FFF7BE
:10303000C3FB801B41F288339842F0D9032051E052
:103040002E4A126812F4003FE0D101204AE02B4AD8
:10305000126812F4806FD9D1012043E02B6813F07D
:10306000020F06D0254A936823F0F003A9680B43AA
:103070009360214B1B6803F00703A3420AD91E4A41
:10308000136823F0070323431360136803F0070357
:10309000A3422ED12B6813F0040F06D0174A936871
:1030A00023F4E063E9680B4393602B6813F0080F87
:1030B00007D0124A936823F46053296943EAC10395
:1030C0009360FFF7DBFB0D4B9B68C3F303130C4AC4
:1030D000D35C03F01F03D8400A4B18600A4B1868F2
:1030E000FFF726FB70BD012070470120FAE70120A1
:1030F000F8E70120F6E700BF002002400010024080
:10310000003F00086C00002068000020014B186898
:10311000704700BF6C00002008B5FFF7F7FF054BB4
:103120009B68C3F30223044AD35C03F01F03D84017
:1031300008BD00BF00100240103F000808B5FFF7AF
:10314000E5FF054B9B68C3F3C223044AD35C03F03D
:103150001F03D84008BD00BF00100240103F000808
:10316000F8B504460F46584BDB6813F0030F18D030
:10317000554BDB6803F003030268934202D001253C
:103180002846F8BD002A00F09D804F4BDB68C3F352
:10319000021301334268934201D00125F0E7002574
:1031A00009E00368022B56D0032B5BD0012B41D0E2
:1031B0000125002DE4D1444A136823F08063136095
:1031C000FFF7FAFA0646404B1B6813F0006F05D074
:1031D000FFF7F2FA831B022BF5D90325002DCFD17F
:1031E000002F4DD138490B6923F0784323F4FE4377
:1031F000A068E268D20642EA002213430B61324A19
:10320000136843F080631360FFF7D6FA06462E4B2F
:103210001B6813F0006F05D1FFF7CEFA831B022B5A
:10322000F5D90325002DABD1274A1369A1690B43BA
:103230001361A5E7244A126812F0020F1ED022483B
:10324000C26822F073026168013943EA0113134333
:10325000C3600025ADE71C4A126812F4806FEED1FE
:103260000125A6E7184A126812F4003FE7D1164A72
:10327000126812F4802FE2D101259AE7012598E720
:10328000012F0FD01048026922F0C06222F4FE42E2
:10329000A16863695B08013B5B0643EA01231343B2
:1032A0000361ACE70848026922F4C00222F4FE423E
:1032B000A16823695B08013B5B0543EA01231343D3
:1032C00003619CE701255BE7001002402DE9F04116
:1032D00082B00446036813F4006F25D0C36BB3F5C6
:1032E000000F06D0B3F5400F12D04BB10126374680
:1032F0001CE0AE4AD36843F48033D360002708E073
:1033000000210430FFF72CFF074610B106460DE000
:103310000027A64AD2F8883023F44003E16B0B4320
:10332000C2F88830002601E000263746236813F4EF
:10333000003F6BD09D4B9B6D13F0805F4CD19B4B3E
:103340009A6D42F080529A659B6D03F08053019311
:10335000019B4FF00108964A136843F48073136091
:10336000FFF72AFA0546924B1B6813F4807F05D1BC
:10337000FFF722FA401B0228F5D90327002F40D17E
:103380008A4BD3F8903013F4407315D0226D9A42D3
:1033900012D0864AD2F8903023F44073D2F89010BD
:1033A00041F48031C2F89010D2F8901021F48031AD
:1033B000C2F89010C2F8903013F0010F0FD1002F17
:1033C00040F0C980794AD2F8903023F44073216DDF
:1033D0000B43C2F8903015E04FF00008BBE7FFF751
:1033E000EBF90546714BD3F8903013F0020FE6D19C
:1033F000FFF7E2F9401B41F288339842F2D90327E4
:10340000DDE73E46B8F1000F40F0A780236813F0D7
:10341000010F08D0654AD2F8883023F00303216AEF
:103420000B43C2F88830236813F0020F08D05F4ABC
:10343000D2F8883023F00C03616A0B43C2F888305D
:10344000236813F0200F08D0584AD2F8883023F4AC
:103450004063A16A0B43C2F88830236813F4007FED
:1034600008D0524AD2F8883023F44023616B0B43D2
:10347000C2F88830236813F4806F08D04B4AD2F822
:10348000883023F44013A16B0B43C2F888302368C3
:1034900013F0400F08D0454AD2F8883023F4405347
:1034A000E16A0B43C2F88830236813F4807F08D0A8
:1034B0003E4AD2F8883023F44033216B0B43C2F8E4
:1034C0008830236813F4005F0FD0384AD2F8883070
:1034D00023F04063216C0B43C2F88830236CB3F1B6
:1034E000006F40D0B3F1806F42D0236813F4802F77
:1034F0000FD02E4AD2F8883023F04063616C0B4322
:10350000C2F88830636CB3F1006F39D0B3F1806FCB
:103510003BD0236813F4804F0CD0244AD2F8883073
:1035200023F04053A16C0B43C2F88830A36CB3F175
:10353000805F32D0236813F4004F08D01B4AD2F8C2
:10354000883023F08043E16C0B43C2F8883030466A
:1035500002B0BDE8F0813E4654E7144A936D23F073
:103560008053936552E7D36843F48013D360BCE77C
:103570000121201DFFF7F4FD0028B6D00646B4E770
:10358000D36843F48013D360C3E70121201DFFF704
:10359000E7FD0028BDD00646BBE70221201DFFF74E
:1035A000DFFD0028C6D00646C4E700BF0010024079
:1035B00000700040024A136843F004031360704730
:1035C00000100240F0B583B0002397E086685F00EA
:1035D0000325BD4026EA0506CD68BD40354385601C
:1035E000466826EA04064D68C5F300149C4034433F
:1035F0004460C7685E000325B540EC4327EA050731
:103600008D68B5403D43C5604D68022D01D0122D37
:1036100013D1DF08083750F827E003F007054FEA19
:10362000850C0F2505FA0CF52EEA050E0D6905FA35
:103630000CF545EA0E0540F82750056825404C6812
:1036400004F00304B4402C4304604C6814F0805F21
:1036500053D0384C256E45F001052566246E04F0E4
:1036600001040194019C9D08AE1C334C54F8267053
:1036700003F00304A6000F24B44027EA0407B0F1C6
:10368000904F51D02D4CA04250D004F58064A04200
:1036900048D00724B4403C430235274E46F8254025
:1036A000274C2568D44325EA02064F6817F4803F6B
:1036B00001D042EA0506224D2E606D6804EA050637
:1036C0004F6817F4003F01D042EA05061C4D6E60BA
:1036D000AD6804EA05064F6817F4801F01D042EA7E
:1036E0000506174DAE60ED682C404E6816F4001FBD
:1036F00001D042EA0504124AD46001330A6832FA62
:1037000003F415D001249C402240F6D04D686E1E73
:10371000012E7FF65BAF112D3FF458AF122D7FF4D1
:1037200068AF53E70224B5E70024B3E70124B1E70B
:1037300003B0F0BD0010024000000140000400484A
:10374000000401400AB18161704781627047000046
:10375000024A136843F4807313607047007000409E
:10376000024B186800F4C060704700BF0070004052
:10377000B0F5007F0FD01F4B1B6803F4C063B3F597
:10378000806F34D01B4A136823F4C06343F4806312
:10379000136000207047174B1B6803F4C063B3F538
:1037A000007F20D0134A136823F4C06343F40073EE
:1037B0001360114B1A68322303FB02F30F4AA2FB7A
:1037C00003239B0C013300E0013B0A4A526912F4C7
:1037D000806F01D0002BF7D1064B5B6913F4806F2B
:1037E00003D100207047002070470320704700205D
:1037F000704700BF007000406C00002083DE1B4358
:10380000074AD36823F4E0631B041B0C000200F496
:10381000E060034343F0BF6343F40033D360704779
:1038200000ED00E030B4174BDB68C3F30223C3F1B3
:103830000704042C28BF04241D1D062D18D9033BA2
:103840004FF0FF3505FA04F421EA0401994005FA26
:1038500003F322EA0303194300280BDB0901C9B271
:1038600000F1604000F5614080F8001330BC704703
:103870000023E5E700F00F000901C9B2024B19541B
:10388000F4E700BF00ED00E014ED00E0002807DBE6
:1038900000F01F02400901239340024A42F8203001
:1038A000704700BF00E100E00138B0F1807F0AD22C
:1038B000064B5860064AF02182F8231000209860D9
:1038C00007221A6070470120704700BF10E000E037
:1038D00000ED00E0D0B50446016883680269134337
:1038E00042691343C269134308688B4A0240134379
:1038F0000B602268536823F44053E1680B43536024
:10390000A1692268854B9A4201D0236A19439368C2
:1039100023F430630B4393602268814B9A421CD09E
:10392000804B9A422DD07D4B9A4243D010237B4945
:103930008A4260D0E069B0F5004F00F08B80082B20
:1039400000F2E480DFE813F0B300C900B100E20048
:10395000CC00E200E200E200CF0003F55843D3F8C8
:10396000883003F00303032B09D8DFE803F00204D7
:1039700038060123DBE70423D9E70823D7E7102320
:10398000D5E703F5E633D3F8883003F00C030C2BAE
:103990000ED8DFE803F0070D0D0D090D0D0D260DF6
:1039A0000D0D0B000023C2E70423C0E70823BEE788
:1039B0001023BCE703F5C833D3F8883003F4406321
:1039C000B3F5006F0FD005D87BB1B3F5806F0ED182
:1039D0000423ACE7B3F5406F0BD10823A7E702231C
:1039E000A5E70223A3E70223A1E700239FE7102313
:1039F0009DE710239BE7082B78D8DFE803F00877D2
:103A000029772677777705004FF4004003E0FFF72A
:103A100083FB00286CD0626802EB4203834269D8C2
:103A2000B0EB023F68D80023070E0602500830189A
:103A300047F10001FDF7A8FBA0F540723A4B9A420E
:103A40005CD82368D860002043E0FEF717FFE0E76A
:103A50003648E0E7082B53D8DFE803F0072105528A
:103A6000245252520B00314803E0FFF755FB002867
:103A700048D06268530803EB4000B0FBF2F080B21C
:103A8000A0F110024FF6EF739A423DD820F00F03D9
:103A9000C0F3420018432368D860002019E0FFF704
:103AA0004DFBE4E7FEF7EAFEE1E7204802E0FFF71E
:103AB00033FB68B3636800EB5300B0FBF3F080B2F4
:103AC000A0F110024FF6EF739A4223D82368D86012
:103AD000002000236366A366D0BDFFF72FFBE8E755
:103AE000FEF7CCFEE5E74FF40040E3E70120F0E706
:103AF0000020EEE70120ECE70120EAE70120E8E7FB
:103B00000120E6E70020E4E70120E2E70120E0E70A
:103B10000020DEE70120DCE7F369FFEF00800040D2
:103B20000038014000440040FFFC0F000024F40076
:103B3000436A13F0010F06D00268536823F4003380
:103B4000816A0B435360436A13F0020F06D0026888
:103B5000536823F48033C16A0B435360436A13F004
:103B6000040F06D00268536823F48023016B0B43D3
:103B70005360436A13F0080F06D00268536823F4B9
:103B80000043416B0B435360436A13F0100F06D0A0
:103B90000268936823F48053816B0B439360436AFC
:103BA00013F0200F06D00268936823F40053C16B12
:103BB0000B439360436A13F0400F0AD002685368C6
:103BC00023F48013016C0B435360036CB3F5801F27
:103BD0000BD0436A13F0800F06D00268536823F4B9
:103BE0000023816C0B43536070470268536823F4D1
:103BF000C003416C0B435360EBE72DE9F8430546E6
:103C00000F4616469946DDF820802C68E46937EAAD
:103C100004030CBF01240024B4423DD1B8F1FF3F9E
:103C2000F3D0FEF7C9FDA0EB0900404522D8B8F15A
:103C3000000F1FD02B681A6812F0040FE5D0DA6964
:103C400012F4006FE1D04FF400621A622A68136820
:103C500023F4D07313602A68936823F00103936000
:103C60002023AB67EB67C5F88030002385F87430FC
:103C7000032012E02A68136823F4D07313602A68C3
:103C8000936823F0010393602023AB67EB67002365
:103C900085F87430032000E00020BDE8F8832DE9AA
:103CA000F04182B01E46836F202B56D104460D464C
:103CB0009046002955D0002A55D090F87430012B39
:103CC00053D0012380F874300023C0F880302123C2
:103CD0008367FEF771FD0746A4F85080A4F8528070
:103CE000A368B3F5805F05D04FF00008002384F887
:103CF000743014E0236913B14FF00008F6E7A846CA
:103D00000025F3E738F8023B2268C3F30803138564
:103D1000B4F8522092B2013A92B2A4F85220B4F808
:103D200052309BB273B100963B4600228021204660
:103D3000FFF763FFD8B9002DE4D0236815F8012BF5
:103D40001A85E5E700963B46002240212046FFF712
:103D500054FF70B92023A36700E0022002B0BDE841
:103D6000F0810120FAE70120F8E70220F6E70320BE
:103D7000F4E70320F2E730B583B004460023C0F82F
:103D80008030FEF719FD054623681B6813F0080F05
:103D90000DD123681B6813F0040F16D12023A367ED
:103DA000E3670020206684F8740003B030BD6FF034
:103DB0007E430093034600224FF400112046FFF794
:103DC0001CFF0028E5D00320EFE76FF07E4300934F
:103DD0002B4600224FF480012046FFF70EFF0028FB
:103DE000DCD00320E1E768B310B50446836F03B36A
:103DF0002423A3672268136823F00103136020467D
:103E0000FFF768FD012813D0636ABBB922685368C5
:103E100023F4904353602268936823F02A0393604D
:103E20002268136843F0010313602046FFF7A3FFE5
:103E300010BD80F87430FDF799FDD9E72046FFF7F3
:103E400077FEE3E7012070470E4AD2F8883043F44A
:103E50007003C2F888300C4B1A6842F001021A60F5
:103E6000002199601A6822F0A85222F410221A60E8
:103E70004FF48052DA601A6822F480221A60996145
:103E8000704700BF00ED00E000100240DFF834D0C2
:103E9000FFF7DAFF002103E00B4B5B58435004317E
:103EA0000A480B4B42189A42F6D30A4A02E0002312
:103EB00042F8043B084B9A42F9D3FCF7C5F9FDF7E9
:103EC0005BFCFEE700C00020A03F000800000020CF
:103ED0007000002070000020DC010020FEE70000E0
:103EE000F8B500BFF8BC08BC9E467047F8B500BFE7
:083EF000F8BC08BC9E467047B7
:103EF800256420636D0A0D0000000000000000002A
:103F08000102030406070809000000000102030477
:103F1800A0860100400D0300801A060000350C0041
:103F280040420F0080841E0000093D0000127A0004
:103F38000024F40000366E010048E801006CDC0241
:103F4800232D302B20000000686C4C006566674507
:103F5800464700003031323334353637383941423C
:103F6800434445460000000030313233343536379B
:103F78003839616263646566000000000000000073
:083F880030D2FF7F01000000B0
:083F90002902000800000000F6
:083F9800010200080000000016
:103FA00004000020000000000000000000000000ED
:103FB0000000000000000000000000000000000001
:103FC00000000000000000000000000000000000F1
:103FD00000000000000000000000000000000000E1
:103FE00000000000000000000000000000000000D1
:103FF00000000000000000000000000000000000C1
:1040000000000000010000001000000000093D0059
:0400000508003E8D24
:00000001FF
