:020000040800F2
:1000000000000220515600088D1100088F110008D1
:1000100091110008931100089511000800000000DC
:100020000000000000000000000000009711000820
:1000300099110008000000009B1100089D110008A4
:10004000A1560008A1560008A1560008A1560008B4
:10005000A1560008A1560008A1560008A1560008A4
:10006000A1560008A1560008A1560008A156000894
:10007000A1560008A1560008A1560008A156000884
:10008000A1560008A1560008A1560008A156000874
:10009000A1560008A1560008A1560008A156000864
:1000A000A1560008A5110008A1560008B5110008C6
:1000B000A1560008A1560008A1560008A156000844
:1000C000A1560008A1560008A1560008A156000834
:1000D000A1560008A1560008A1560008A156000824
:1000E000A1560008A1560008A1560008A156000814
:1000F000C5110008A1560008D5110008A156000836
:10010000A1560008A1560008A1560008A1560008F3
:10011000A1560008A1560008A1560008A1560008E3
:10012000A1560008A1560008A1560008A1560008D3
:10013000A1560008A1560008A1560008A1560008C3
:10014000A1560008A1560008A1560008E5110008B4
:10015000A1560008A1560008A1560008A1560008A3
:10016000A1560008A1560008A1560008A156000893
:10017000A1560008A1560008A15600080000000082
:08018000A1560008A156000879
:100188000348044B834202D0034B03B1184770471E
:10019800900000209000002000000000054806495B
:1001A8000B1AD90F01EBA301491002D0034B03B17D
:1001B80018477047900000209000002000000000C1
:1001C80010B5064C237843B9FFF7DAFF044B13B197
:1001D8000448AFF300800123237010BD9000002075
:1001E80000000000A456000808B5044B1BB10449E0
:1001F8000448AFF30080BDE80840CFE700000000E6
:1002080094000020A456000870B50D4E0D4D761BC5
:10021800B61006D0002455F8043B01349847A6428E
:10022800F9D1094E094D761B05F038FAB61006D0FB
:10023800002455F8043B01349847A642F9D170BD13
:10024800E0560008E0560008E4560008E0560008AA
:10025800024B0146186800F0B9B800BF0000002042
:10026800024B0146186800F053B800BF0000002098
:10027800F0B4860746D0541E002A3CD0CAB20346C2
:1002880001E0013C37D303F8012B9D07F9D1032C7A
:100298002AD9CDB245EA05250F2C45EA054534D9BA
:1002A800A4F1100222F00F0C03F12007160967448D
:1002B80003F1100242E9045542E902551032BA42EC
:1002C800F8D1721C14F00C0F03EB021204F00F06A5
:1002D80013D0331F23F003030433134442F8045BA1
:1002E8009342FBD106F003042CB1CAB21C4403F8B4
:1002F800012B9C42FBD1F0BC704734461346002CBE
:10030800F3D1F8E714460346C1E71A462646E0E764
:10031800002954D030B551F8043C83B0002BA1F12A
:100328000404B8BFE418019000F0BCF8264A01980C
:1003380013682BB1A3420CD921686518AB422CD0A5
:100348006360146003B0BDE8304000F0ADB8A3426C
:100358000FD81A465B68002BF9D111685518AC42C2
:1003680017D02DD36360546003B0BDE8304000F06F
:100378009BB811685518A54215D021D82168651871
:10038800AB42EFD1D3E90053294463602160546044
:10039800D8E7236819441160D4E7D3E90053294406
:1003A80063602160CDE7246821445418A34211609A
:1003B800C8D1D3E90043214453601160C2E77047B4
:1003C8000C230360BEE700BFAC000020F8B5CD1CCD
:1003D80025F0030508350C2D38BF0C25002D0646E1
:1003E80023DBA94221D8254F00F05CF83A6822B3F4
:1003F800144603E063682246FBB11C4623685B1B76
:10040800F8D40B2B15D8636894420CBF3B6053603B
:10041800304600F049F804F10B0020F00700231DD6
:10042800C21A01D01B1AA350F8BD0C233360002058
:10043800F8BD23601C442560EAE77968C9B12946FC
:10044800304600F01DF8431C0CD0C41C24F00304F3
:10045800A04205D0211A304600F012F8013001D030
:100468002560D5E70C233046336000F01DF80020E6
:10047800F8BD304600F004F87860E0E7AC000020F2
:1004880038B5074D0022044608462A6000F00EF8E9
:10049800431C00D038BD2B68002BFBD0236038BD2F
:1004A8006C0A0020704700BF704700BF044A054926
:1004B8001368002B08BF0B46184410601846704795
:1004C800B4000020700A002053B94AB9002908BFB7
:1004D80000281CBF4FF0FF314FF0FF3000F06EB91D
:1004E800ADF1080C6DE904CE00F006F8DDF804E083
:1004F800DDE9022304B070472DE9F047089D044662
:100508008C46002B40F083808A42174647D9B2FABE
:1005180082F242B1C2F1200024FA00F091409740E3
:1005280040EA010C94404FEA1748230CBCFBF8F64C
:100538001FFA87FE08FB16C143EA014306FB0EF1CA
:10054800994209D9FB1806F1FF3080F019819942C8
:1005580040F21681023E3B445B1AA4B2B3FBF8F0AA
:1005680008FB103344EA034400FB0EFEA64509D9F4
:100578003C1900F1FF3380F00581A64540F2028165
:1005880002383C4440EA0640A4EB0E0400261DB1A4
:10059800D4400023C5E900433146BDE8F08702B9DD
:1005A800FFDEB2FA82F2002A50D1CB1B4FEA174E77
:1005B8001FFA87F80126B3FBFEFC210C0EFB1C3347
:1005C80041EA034108FB0CF38B4207D979180CF177
:1005D800FF3002D28B4200F2E9808446C91AA3B2E6
:1005E800B1FBFEF00EFB101143EA014408FB00F8D2
:1005F800A04507D93C1900F1FF3302D2A04500F20B
:10060800D9801846A4EB080440EA0C40BFE78B42A7
:1006180009D9002D00F0B1800026C5E90001304657
:100628003146BDE8F087B3FA83F6002E4AD18B42F3
:1006380002D3824200F2B880841A61EB03010120E0
:100648008C46002DA8D0C5E9004CA5E7C2F12003CF
:1006580020FA03F6974001FA02F04FEA174ED94004
:100668003043030CB1FBFEF61FFA87F80EFB161198
:1006780043EA014306FB08F1994204FA02F409D956
:10068800FB1806F1FF3C80F08D80994240F28A8089
:10069800023E3B445B1A81B2B3FBFEF00EFB103303
:1006A80041EA034100FB08F38B4207D9791800F1AE
:1006B800FF3C73D28B4271D902383944CB1A40EAD5
:1006C800064678E7C6F1200C03FA06F422FA0CF382
:1006D8001C4320FA0CF701FA06F34FEA144E21FAEC
:1006E8000CF11F433B0CB1FBFEF91FFA84F80EFB1B
:1006F800191143EA014109FB08FA8A4502FA06F290
:1007080000FA06F308D9611809F1FF3048D28A4582
:1007180046D9A9F102092144A1EB0A01BFB2B1FBF4
:10072800FEF00EFB101147EA014700FB08F8B84538
:1007380007D9E71900F1FF312ED2B8452CD9023874
:10074800274440EA0940A7EB0807A0FB02894F4568
:10075800C64649461AD317D05DB1B3EB0E0267EB14
:10076800010707FA0CFCF2404CEA0202F740C5E91F
:10077800002700263146BDE8F0872E4628460BE7BD
:100788000646E9E61846FDE64345E5D2B8EB020E13
:1007980069EB04010138DFE70846D2E760468DE7D8
:1007A8008146B9E7664675E730464AE7ACF1020C80
:1007B800394413E702383C4424E700BF704700BFC0
:1007C8002DE9F04F8DB000240794089409940A94F9
:1007D8000B940194614B1A6B42F010021A631A6B66
:1007E80002F010020192019A02941A6B42F004027C
:1007F8001A631A6B02F004020292029A03941A6BAB
:1008080042F080021A631A6B02F080020392039A84
:1008180004941A6B42F001021A631A6B02F0010287
:100828000492049A05941A6B42F002021A631A6B36
:1008380002F002020592059A06941A6B42F0080229
:100848001A631B6B03F008030693069B444F22466A
:100858000821384602F0C4FDDFF810A10122114634
:10086800504602F0BDFD3F4E22464FF470413046DF
:1008780002F0B6FDDFF8F89022464FF210314846F4
:1008880002F0AEFD4FF00808CDF81C800125089550
:1008980009940A9407A9384602F0B8FC0795089508
:1008A80009940A9407A9504602F0B0FCCDF81C80C0
:1008B8004FF00208CDF8208009940A944FF0050BF8
:1008C800CDF82CB007A9504602F0A0FC07954FF4CC
:1008D800901ACDF820A0099407A9234802F096FCA5
:1008E800042307930894099407A9304602F08EFC64
:1008F8004FF480630793CDF8208009940A94CDF8CB
:100908002CB007A9304602F081FC4FF470430793DE
:10091800089509940A9407A9304602F077FC4FF22B
:1009280010330793089509940A9407A9484602F0DA
:100938006DFC202307930894099407A9484602F000
:1009480065FCCDF81C80CDF820A0099407A938468D
:1009580002F05CFC0DB0BDE8F08F00BF003802402B
:10096800001002400004024000000240000802405B
:10097800000C024010B50446184B984203D0184B9F
:100988009C4215D010BD037F022B09D0237F042B76
:100998000AD0237F082BF2D1022004F033FDEEE7C2
:1009A800002004F02FFDF1E7012004F02BFDF0E713
:1009B800237F012B09D0237F042B0AD0237F082B08
:1009C800E0D1022004F0A6FDDCE7002004F0A2FD3F
:1009D800F1E7012004F09EFDF0E700BFAC01002024
:1009E800C800002072B6FEE708B50A480A4B036043
:1009F8000A4B436000238360C3604FF48042026166
:100A080043618361C361036202F0C0FD00B908BDA0
:100A1800FFF7E8FF1001002000540040A086010005
:100A280008B50A480A4B03604FF40072426000237D
:100A38008360C3600261074A42618361C3610362E4
:100A480002F082FE00B908BDFFF7CCFF900200203B
:100A5800003C00400077010008B50D480D4B0360CD
:100A68004FF48273436000238360C3600361436172
:100A78004FF400728261C3610362436283620A2396
:100A8800C36203F05DF900B908BDFFF7ABFF00BF13
:100A9800F40100200030014010B596B000241494F1
:100AA80015940D940E940F94109411941294139419
:100AB80009940A940B940C942022214601A8FFF76C
:100AC800D7FB3548354B0360A723436084604FF656
:100AD800FF73C36004614461846103F0D7FB00289D
:100AE8004AD12D4803F0FEFB002847D10023149378
:100AF800159314A9284803F0B3FE002840D16023B9
:100B08000D930A230E9300220F92109211921292C3
:100B180013920DA9204803F049FC002832D10A237A
:100B2800099301230A9300230B930C93042209A928
:100B3800194803F0E5FC38BB082209A9164803F058
:100B4800DFFC18BB0C2209A9134803F0D9FCF8B93B
:100B58000023019302930393049305934FF40052E7
:100B68000692089301A90C4803F0BEFE90B90A4802
:100B780000F0CEFC16B010BDFFF734FFFFF732FFD0
:100B8800FFF730FFFFF72EFFFFF72CFFFFF72AFFD5
:100B9800FFF728FFFFF726FFAC0100200000014007
:100BA80000B58BB000230893099301930293039334
:100BB80004930593069307932148224A026040F262
:100BC8008F62426083604FF47A72C260036183610E
:100BD80003F05CFB48BB00230893099308A9184855
:100BE80003F03EFE18BB602301934FF4FA7302939F
:100BF8000022039205920692079201A9104803F079
:100C0800D5FBB0B904220DEB02010D4803F0CEFB71
:100C180088B9082201A90A4803F0C8FB68B908483E
:100C280000F076FC0BB05DF804FBFFF7DBFEFFF786
:100C3800D9FEFFF7D7FEFFF7D5FEFFF7D3FE00BFBB
:100C4800640100200004004000B587B0002304932D
:100C5800059300930193029303931D481D4A026074
:100C68000122426083604FF6FF72C26003614361F4
:100C7800836103F037FB08BB00230493059304A9A1
:100C8800134803F0EDFDD8B9002200920123019327
:100C98000292039269460E4803F032FC90B908228A
:100CA80069460B4803F02CFC70B90C2269460848C9
:100CB80003F026FC50B907B05DF804FBFFF792FE7D
:100CC800FFF790FEFFF78EFEFFF78CFEFFF78AFE18
:100CD800C80000200004014008B50A480A4B036018
:100CE8004FF41653436000238360C36003610C22F2
:100CF80042618361C36104F055FB00B908BDFFF789
:100D080071FE00BF4C0200200044004000B595B0C1
:100D18003022002108A8FFF7ABFA002303930493BD
:100D28000593069307930193214A116C41F0805172
:100D38001164126C02F080520192019A02931D4BC9
:100D48001A6842F480421A601B6803F480430293D5
:100D5800029B012308934FF48033099302230E93D7
:100D68004FF480020F92082210924FF4A872119249
:100D780012930723139308A801F02CFE98B90F23A8
:100D8800039302230493002305934FF4A05306937F
:100D98004FF480530793052103A802F07DF820B98A
:100DA80015B05DF804FBFFF71DFEFFF71BFE00BF43
:100DB800003802400070004008B502F0A7FBFFF7BA
:100DC800A5FFFFF7FDFCFFF70FFEFFF729FEFFF772
:100DD80043FEFFF761FE00F099F8FFF7E1FEFFF729
:100DE80033FFFFF779FF3B4C204603F0EBF83A4E10
:100DF800304603F0E7F8394D284603F0E3F80021C0
:100E0800204603F0F1FB0421204603F06FFC082183
:100E1800204603F06BFC0C21204603F067FC002100
:100E2800304603F0E1FB0421304603F0DDFB0821E6
:100E3800304603F0D9FB0021284603F057FC08216F
:100E4800284603F053FC0C21284603F04FFC3221BE
:100E5800002004F0E5FB3221012004F0E1FB3221FF
:100E6800022004F0DDFB4FF4FA6002F07BFB04F093
:100E7800C9FB4FF4FA7002F075FB002004F094FBF4
:100E88004FF4FA6002F06EFB04F0BCFB4FF4FA700A
:100E980002F068FB012004F087FB4FF4FA6002F0CF
:100EA80061FB04F0AFFB4FF4FA7002F05BFB022029
:100EB80004F07AFB4FF4FA71002004F0B1FB4FF410
:100EC800FA71012004F0ACFB4FF4FA71022004F02F
:100ED800A7FBC8E7AC01002064010020C80000207F
:100EE80004290CD0052902D0022904D07047064BEA
:100EF80003221A707047044B02221A707047024B83
:100F080001221A70F2E700BFB800002008B50122DC
:100F18000B490C4803F058FD48B90B49094803F040
:100F280072FD38B9074803F0B1FD30B908BDFFF7C5
:100F380059FDF2E7FFF756FDF4E7FFF753FDF5E734
:100F4800E90E0008D80200207000002070B588B0B3
:100F58000023039304930593069307930368B3F15F
:100F6800A04F01D008B070BD002401941B4D2B6B1D
:100F780043F001032B632B6B03F001030193019BE7
:100F88004FF40073039304940594154E03A9304657
:100F980002F03CF94FF4E0530393022304930594C1
:100FA80006940A23079303A9304602F02FF96B6BC6
:100FB80043F080036B6302946B6C43F480436B646F
:100FC8006B6C03F480430293029B22462146432024
:100FD80002F01EFA432002F04FFAC3E7003802403D
:100FE8000000024008B5D0F8000303F05CFD08BD1E
:100FF80008B5D0F8000303F067FD08BD08B5D0F8C0
:10100800000303F06BFD08BD704708B5D0F8000376
:1010180003F052FD08BD08B5D0F8000303F050FDF9
:1010280008BD000090F8CC33012B01D00020704798
:1010380010B504460F48C0F80043C4F8D0034FF079
:10104800A0430360082383600123C3600023036176
:1010580002228261C36100F089FB40B9054801F0B2
:10106800CBF80146204603F01BFD002010BDFFF71A
:10107800B9FCF3E7B006002008B5D0F8D00301F0BA
:10108800B6F808BD08B5D0F8D00301F0AAF808BD35
:1010980008B590F8CC33012B04D0C82002F062FACE
:1010A800002008BD084600F061F8F6E7D0F8D00344
:1010B8002C2303FB010393F83B3033B12C2303FBB0
:1010C800010181F85420002070472C2303FB010103
:1010D80081F85520F7E7022805D8DFE800F0050475
:1010E8000200012070470220704708B5D0F8D003ED
:1010F80001F050F8FFF7EFFF08BD08B5D0F8D003AE
:1011080001F05DF8FFF7E7FF08BD10B584B0D0F82F
:10111800D003BDF8204002949DF81C4001949DF82E
:101128001840009400F0C9FAFFF7D5FF04B010BDCD
:1011380008B5D0F8D00300F007FBFFF7CCFF08BDD7
:1011480010B584B0D0F8D0039DF824400394BDF8BE
:1011580020400294079C01949DF81840009400F0E8
:101168004FFBFFF7B8FF04B010BD000008B528B961
:1011780001220121024802F033F908BD0022F8E7F4
:1011880000080240FEE7FEE7FEE7FEE7FEE77047DD
:101198007047704708B502F0D3F908BD08B5024892
:1011A80002F052FF08BD00BFAC01002008B502489C
:1011B80002F04AFF08BD00BFAC01002008B5024894
:1011C80002F042FF08BD00BFC800002008B5024871
:1011D80002F03AFF08BD00BFC800002008B5024869
:1011E80000F02DFF08BD00BFB006002000B583B099
:1011F800002100910C4B5A6C42F480425A645A6C9C
:1012080002F480420092009A01911A6C42F08052D6
:101218001A641B6C03F080530193019B072002F0B2
:10122800E5F803B05DF804FB0038024030B589B03A
:101238000023039304930593069307930268154BC1
:101248009A4201D009B030BD00250195124C236B9C
:1012580043F002032363236B03F002030193019B12
:101268004FF41073039312230493012305930695F7
:101278000423079303A9094801F0C8FF0295236CCA
:1012880043F400132364236C03F400130293029BBA
:10129800D8E700BF00540040003802400004024074
:1012A80070B58CB000230793089309930A930B93A6
:1012B80006930268254B9A4201D00CB070BD0123F9
:1012C8000393C02304930223059303A801F0BAFEF5
:1012D800002837D1002400941D4B1A6C42F40042B8
:1012E8001A641A6C02F400420092009A01941A6B74
:1012F80042F001021A631A6B02F001020192019A8C
:1013080002941A6B42F004021A631B6B03F0040385
:101318000293029B102307930226089609940A94C5
:1013280006250B9507A90B4801F070FF4FF4A4534D
:101338000793089609940A940B9507A9064801F0A3
:1013480065FFBAE7FFF74EFBC4E700BF003C00406B
:1013580000380240000002400008024000B589B091
:101368000023039304930593069307930268154B90
:101378009A4202D009B05DF804FB0022019203F5FD
:101388008433596C41F480515964596C01F480518B
:10139800019101990292196B41F0010119631B6BCC
:1013A80003F001030293029BE023039302230493B7
:1013B800059206920523079303A9034801F026FF27
:1013C800D8E700BF003001400000024010B588B0E7
:1013D8000023039304930593069307930368244A11
:1013E800934204D0234A934235D008B010BD00245C
:1013F8000094214B5A6C42F001025A645A6C02F074
:1014080001020092009A01941A6B42F010021A63CA
:101418001B6B03F010030193019B4FF4D04303931C
:1014280002230493059406940123079303A9134800
:1014380001F0ECFE22462146192001F0E9FF1920AF
:1014480002F01AF8224621461B2001F0E1FF1B207A
:1014580002F012F8C9E700230293074B1A6C42F016
:1014680002021A641B6C03F002030293029BBCE79E
:101478000000014000040040003802400010024013
:1014880010B588B00023039304930593069307933C
:10149800026803F1804303F582339A4201D008B011
:1014A80010BD0024019403F59A335A6C42F00202ED
:1014B8005A645A6C02F002020192019A02941A6B61
:1014C80042F004021A631B6B03F004030293029BAD
:1014D8004FF4507303930223049305940694032353
:1014E800079303A9094801F091FE224621462C20C2
:1014F80001F08EFF2C2001F0BFFF224621462E204E
:1015080001F086FF2E2001F0B7FFC8E7000802406F
:1015180000B589B0002303930493059306930793BA
:1015280003681E4A934205D01D4A93421DD009B054
:101538005DF804FB0023019302F59C32116B41F026
:1015480010011163126B02F010020192019A4FF41C
:1015580000720392022204920593069301230793D3
:1015680003A9104801F052FEE1E70023029302F5B7
:101578000D32116B41F002011163126B02F002028D
:101588000292029A31220392022204920593069350
:10159800079203A9044801F039FEC8E7000001409A
:1015A80000040040001002400004024000B589B069
:1015B8000023039304930593069307930268154B3E
:1015C8009A4202D009B05DF804FB0022019203F5AB
:1015D800FA33196C41F400311964196C01F40031C3
:1015E800019101990292196B41F0010119631B6B7A
:1015F80003F001030293029B0C2303930223049339
:101608000592032306930723079303A9024801F0D1
:10161800FDFDD7E70044004000000240F8B5066829
:10162800346A04F00F07C4F34343C4F30A14022BCB
:1016380000D0F8BD0546002CFBD02C2303FB070384
:10164800596C0029F5D02C2303FB07031A6D22449B
:10165800DB6C9A4206D92C2000FB0755042385F839
:101668006030E6E72246304600F086FE2C2303FB76
:1016780007535A6C22445A641A6D22441A6506EBC1
:101688004716D6F81025C2F3C942B3F84030A34232
:10169800CFD1002ACDD0D6F8003523F0804343F0CF
:1016A8000043C6F800352C2303FB075595F8543042
:1016B80083F0010385F85430BBE7F0B585B00446E4
:1016C8009DF828509DF82C60BDF8307090F8F8020D
:1016D800012837D0012084F8F8022C2000FB0140B3
:1016E8004FF0000C80F83DC080F83830A0F840700A
:1016F80080F8391080F83F6002F07F0C80F83AC01B
:1017080012F0800F16D12C2000FB01404FF0000C86
:1017180080F83BC02C2000FB014080F83C50029729
:1017280001960095206800F052FF002384F8F832F3
:1017380005B0F0BD2C2000FB01404FF0010C80F8F3
:101748003BC0E7E70220F3E790F8F832012B0BD013
:1017580010B50446012380F8F832006800F0CBFF8A
:10176800002084F8F80210BD02207047002845D0F8
:10177800F0B58BB00646046890F8F932002B38D0E3
:10178800032386F8F932E36B13F4807F01D1002339
:101798003361306800F0A7FD344654F810CB6D462D
:1017A8000FCC0FC50FCC0FC594E8030085E80300E4
:1017B800371D97E80E00604600F04AFD01213068A9
:1017C80000F008FE344654F810CB6D460FCC0FC518
:1017D8000FCC0FC594E8030085E8030097E80E00D6
:1017E800604600F029FE012386F8F93200200BB08C
:1017F800F0BD80F8F832FFF7A9FBC1E70120704778
:10180800F8B59DF81850BDF820602C2404FB01049D
:1018180084F83B2084F83F307DB92C2404FB010474
:10182800032784F842709DF8247084F83D70032BD8
:101838007FD8DFE803F0097828502C2404FB010442
:10184800022784F84270F2E7012D72D1002A70D184
:101858002EB92C2303FB0103012283F855202C23E6
:1018680003FB010393F8553033B92C2303FB010321
:10187800002283F842205CE02C2303FB01030222B0
:1018880083F8422055E092B92C2303FB010393F817
:1018980055302BB92C2303FB010383F8422048E081
:1018A8002C2303FB0103022283F8422041E02C236E
:1018B80003FB010393F8543033B92C2303FB0103D2
:1018C800002283F8422034E02C2303FB0103022288
:1018D80083F842202DE092B92C2303FB010393F8EF
:1018E80055302BB92C2303FB010383F8422020E059
:1018F8002C2303FB0103022283F8422019E02C2346
:1019080003FB010393F8543033B92C2303FB010381
:10191800002283F842200CE02C2303FB010302225F
:1019280083F8422005E02C2303FB0103002283F8FF
:1019380042202C2303FB01F3C218079C5464D6648D
:10194800002482F86040146582F8391082F86140FA
:1019580003F13801027C0144006800F051FFF8BD32
:1019680030B583B004460568D5F840340193D5F8FE
:1019780040340093009B23F02E030093019B13F047
:10198800020F07D0019B13F0010F25D1009B43F0F4
:1019980002030093019B13F0080F10D0009B43F043
:1019A80008030093019B13F0040F2DD0A369022BA9
:1019B80015D0E368012B22D02046FFF726FB019BB8
:1019C80013F0200F03D0009B43F020030093009BEB
:1019D800C5F8403403B030BDFFF70AFBD6E7019BDA
:1019E80003F4C023B3F5802F04D00121206800F050
:1019F8009BFDE1E70221206800F096FDDCE74EF64A
:101A08006022C5F80424D7E72046FFF704FBD6E791
:101A1800F8B505460E46076807EB411707F5A064B9
:101A2800A36813F0040F40D00423A360E36843F0D5
:101A38000203E360A36813F4007F40F09380A36877
:101A480013F0010F00F0D7802B6943B12C2303FB5F
:101A580006539A6C2169C1F31201521A1A652C2394
:101A680003FB0653012283F861200021D965A26097
:101A780093F83F30002B00F08180022B7ED0032B9F
:101A880000F09380012B40F083802C2303FB065346
:101A9800012283F8602093F85410514083F85410C1
:101AA80031462846FFF7B0FA72E0A36813F4807F46
:101AB80006D1A36813F0200F13D02023A360B9E741
:101AC8004FF48073A3602C2303FB0103072283F8E0
:101AD8006120E36843F00203E360006800F00BFE56
:101AE800A8E7A36813F0080F17D1A36813F4806F51
:101AF80025D1A36813F0800F9CD0E36843F002035C
:101B0800E3602C2303FB0103062283F861200068AD
:101B180000F0F1FD8023A3608CE7E36843F0020343
:101B2800E3602C2303FB0103052283F861201023C3
:101B3800A3600823A360006800F0DDFD7AE7E3688E
:101B480043F00203E3602C2303FB0103082283F81C
:101B580061201023A3604FF48063A360006800F045
:101B6800CAFD67E7E36843F00203E360314628688B
:101B780000F0C1FD4FF40073A360F8BDE36843F0C3
:101B88000203E3603146286800F0B5FD1023A36026
:101B98002B69012B1AD02C2000FB065595F85430E0
:101BA80083F0010385F85430E7E7D7F8003543F0B0
:101BB8000053C7F800352C2303FB0653012283F892
:101BC800602031462846FFF71FFAE1E72C2303FB84
:101BD80006539A6CB3F84030B2FBF3F313F0010FDD
:101BE800CBD02C2303FB065595F8543083F0010322
:101BF80085F85430C1E7A36813F0020F64D0E36896
:101C080023F00203E3602C2303FB065393F86130AF
:101C1800012B13D0052B23D0062B28D0082B26D038
:101C2800032B42D0072B0FD12C2303FB0653DA6D6D
:101C38000132DA65042283F8602005E02C2303FBD7
:101C48000653012283F860200223A3602C2303FBA0
:101C5800065393F8602031462846FFF7D5F98CE7FC
:101C68002C2303FB0653052283F86020ECE72C2283
:101C780002FB0652D36D0133D365022B06D91346F6
:101C88000022DA65042283F86020DDE72C2303FBB9
:101C98000653022283F86020D7F8003523F08043EA
:101CA80043F00043C7F80035CEE72C2303FB065367
:101CB800022283F86020D7F8003523F0804343F0F0
:101CC8000043C7F80035BFE7A36813F0100F3FF4CF
:101CD80054AF2C2303FB065393F83F30032B0CD04F
:101CE8000BB1022B06D12C2303FB06530022DA6525
:101CF8002B6983B11023A3603FE72C2303FB065312
:101D08000022DA65E36843F00203E360314628689D
:101D180000F0F1FCEEE72C2303FB0653032283F8C3
:101D28006120E36843F00203E3603146286800F06D
:101D3800E2FCDFE770B5036803EB411303F5A06429
:101D4800A26812F0040F06D00423A360E36843F0EE
:101D58000203E36070BD05460E46A26812F0200F2C
:101D680018D02023A3602C2303FB010393F83D30F4
:101D7800012BEFD12C2303FB0103002283F83D2024
:101D8800022283F86020E3681343E360006800F0F0
:101D9800B2FCDFE7A26812F4007F24D1A26812F037
:101DA800010F2BD02C2303FB01030022DA65A36863
:101DB80013F0400F07D02C2303FB0103012283F803
:101DC8003D204023A360E36843F00203E36031460B
:101DD800286800F090FC0123A3602C2000FB065526
:101DE80085F86130B6E7E36843F00203E360006812
:101DF80000F081FC4FF40073A360ABE7A26812F017
:101E0800400F29D1A26812F0080F3AD1A26812F047
:101E1800100F46D02C2303FB01030022DA650322AE
:101E280083F8612093F83D305BB92C2303FB010351
:101E380093F83C302BB92C2303FB0103012283F8D0
:101E48003D20E36843F00203E3603146286800F070
:101E580052FC1023A3607DE72C2303FB010304221B
:101E680083F86120012283F83D200022DA65E368C7
:101E780043F00203E360006800F03DFC4023A360E8
:101E880068E70823A360E36843F00203E36000689F
:101E980000F031FC2C2303FB0655052385F861303F
:101EA80058E7A26812F0800F29D0036983B12C2269
:101EB80002FB0102D36D0133D365022B16D82C2304
:101EC80003FB0105022385F860308023A36041E706
:101ED8002C2303FB0103062283F86120E36843F007
:101EE8000203E360006800F006FCEEE713460022F8
:101EF800DA65042283F86020FFF786F8E5E7A26830
:101F080012F4806F27D1A26812F0020F3FF422AFBB
:101F1800E26822F00202E2602C2202FB010292F83F
:101F28006120012A2AD0032A5BD0042A6BD0052A13
:101F380070D0062A01D0082A59D12C2101FB06515C
:101F4800CA6D0132CA65022A6AD90022CA6504220A
:101F580081F860204BE0E36843F00203E360006827
:101F680000F0C9FB1023A3604FF48063A3602C2307
:101F780003FB0655082385F86130EBE62C2303FBA9
:101F8800010383F8602093F83F30023BDBB29342B1
:101F98002DD8016941B92C2303FB060393F855207A
:101FA80082F0010283F85520012920D12C2303FB5C
:101FB8000653DB6CDBB12C2202FB0652B2F8402040
:101FC8001344013BB3FBF2F313F0010F0FD02C23A2
:101FD80003FB065393F8552082F0010283F855203D
:101FE80005E02C2303FB0103022283F8602002236F
:101FF800A3602C2303FB065393F860203146284640
:10200800FFF702F8A6E62C2303FB0103022283F85C
:102018006020ECE72C2303FB010383F86020E6E74C
:102028002C2202FB0652022182F86010D3F8002508
:1020380022F0804242F00042C3F80025D7E7F8B505
:1020480004460568284600F0C1F9012800D0F8BD0B
:102058002E46206800F0B6F90028F8D0206800F075
:10206800B1F910F4001F03D023684FF400125A612D
:10207800206800F0A7F910F4801F03D023684FF4FC
:1020880080125A61206800F09DF910F0806F03D02B
:1020980023684FF080625A61206800F093F910F0CD
:1020A800020F02D0236802225A61206800F08AF9E0
:1020B80010F0005F08D023684FF000525A61D5F83D
:1020C800403413F0010F1DD0206800F07BF910F0A8
:1020D800807F26D1206800F075F910F0080F24D110
:1020E800206800F06FF910F0100F25D1206800F07B
:1020F80069F910F0007FAAD0206800F0F7FA0746C7
:1021080000252CE01021284600F0F4F8284600F0BD
:1021180009F90121206800F007FA2046FEF76EFF52
:10212800D2E72046FFF71CFCD4E72046FEF75AFF0B
:10213800236808225A61D3E72268936923F01003C1
:1021480093612046FFF76AFA2268936943F0100307
:102158009361CBE7E9B22046FFF7ECFD0135A368B0
:10216800AB4212D905F00F0327FA03F313F0010F5E
:10217800F4D006EB4513D3F8003513F4004FE9D03B
:10218800E9B22046FFF744FCE8E723684FF0007205
:102198005A615CE790F8F832012B0ED010B504466E
:1021A800012180F8F812006800F0DEF9206800F0DC
:1021B80094F8002084F8F80210BD0220704790F8C7
:1021C800F832012B0BD010B50446012380F8F83201
:1021D800006800F0BFFB002084F8F80210BD022060
:1021E80070472C2303FB010191F8600070472C23F2
:1021F80003FB0101086D704708B5006800F0E2F9BB
:1022080008BD000082B000230193019B01330193B4
:102218000E4A934214D80369002BF6DA002301937F
:10222800036943F001030361019B01330193074AEA
:10223800934208D8036913F0010FF5D1002000E09C
:10224800032002B070470320FBE700BF400D0300E6
:1022580084B010B5044603A880E80E00089B012B43
:102268001FD1A36B23F48033A363E36823F48403AF
:1022780023F04003E360E36823F44013E3600F9B1B
:10228800012B09D02046FFF7BDFF069B012B1BD071
:10229800BDE8104004B07047E36843F48013E3607E
:1022A800F0E7E36843F04003E3602046FFF7AAFF46
:1022B8000C9B23B9A36B43F48033A363E5E7A36BBB
:1022C80023F48033A363E0E7A36843F00603A36025
:1022D800A36843F02003A360DAE7836843F00103AF
:1022E800836000207047836823F001038360002027
:1022F8007047000082B000230193890141F020015A
:102308000161019B01330193054A934205D8036992
:1023180013F0200FF5D1002000E0032002B0704731
:10232800400D030082B00023019310230361019B39
:1023380001330193054A934205D8036913F0100F3E
:10234800F5D1002000E0032002B07047400D0300E3
:1023580070B49DF80C4064B903339D08AC4208D2B0
:1023680000EB023303F5805351F8046B1E6001340F
:10237800F4E7002070BC7047F0B482B00746084606
:102388003E46950802F003020023AB4206D206F54A
:102398008054246840F8044B0133F6E77AB107F516
:1023A80080573B6801930025EBB2DC00019BE340BA
:1023B80000F8013B0135013A92B2002AF4D102B08B
:1023C800F0BC70474269806910407047406900F06E
:1023D8000100704738B50546C36823F0C043C360A1
:1023E800012913D019BBC36843F08043C36000249C
:1023F800012001F0B7F801342846FFF7E7FF08B1DC
:10240800312CF5D9322C14D0002038BDC36843F0E4
:102418000053C3600024012001F0A4F801342846C9
:10242800FFF7D4FF0128EDD0312CF4D9EAE70120D9
:10243800EBE70120E9E7000084B038B5044605A8B9
:1024480080E80E0025460023C4F8003EA36B43F441
:102458000013A363A36B23F40023A363A36B23F4E8
:102468008023A363E36B13F4807F10D0079B012BB9
:1024780006D0D4F8003423F00403C4F800340CE088
:10248800D4F8003443F00403C4F8003405E0D4F869
:10249800003423F00403C4F8003410212046FFF769
:1024A80029FF2046FFF73EFF0022069B93420AD9E8
:1024B80005EB42134FF0FF31C3F808150021C3F8AC
:1024C8000C150132F1E70023A3614FF0FF3363617C
:1024D800E36B13F4807F17D04FF40073636203F14A
:1024E8008073A3620D4BC4F80031089B1BB9A36924
:1024F80043F01003A361A269094B1343A3610020B1
:10250800BDE8384004B070478023636203F5C00318
:10251800A362044BC4F80031E7E700BF0003E00002
:10252800080020A3E000400010B400F58064D0F853
:10253800003423F00303C0F80034D0F8003401F06D
:1025480003021343C0F80034012905D0022907D03B
:1025580000205DF8044B70474BF680336360F7E763
:1025680041F270736360F3E782B000230193D0F8FF
:1025780040340193019B23F02E030193019B13F434
:10258800805F01D101290CD0019B13F4805F05D035
:1025980021B9019B23F48053C0F84034002002B0D5
:1025A8007047019B43F48053C0F84034ECE782B095
:1025B80000230193D0F8403401930198C0F34140BF
:1025C80002B0704700F58060806880B270472DE9DE
:1025D800F84391461C469DF8245000EB411606F539
:1025E800A0634FF0FF329A60032D6AD8DFE805F048
:1025F800025B021840F29D42DA6019F0800F09D19F
:10260800C26B12F4807F5ED0DA6842F06002DA6052
:1026180000270CE0DA6842F48072DA60002706E0EE
:1026280040F29D62DA6019F0800F36D10027D0F8A9
:10263800183401F00F01012202FA01F11943C0F820
:102648001814836943F00073836119F0800F3CD13B
:102658004FF00008FFF7ABFF9DF82030022B37D072
:102668000021A30503F0FE534FEAC92909F4F049F4
:1026780043EA0903AC0404F440242343BDF82820AA
:10268800C2F30A02134343EA08030B43C6F80035B2
:10269800032D24D03846BDE8F883DA6842F4807206
:1026A800DA600027C3E740F22522DA6019F0800FCC
:1026B80001D10027BBE7DA6842F4C072DA6000276C
:1026C800B5E70127B3E70027B1E74FF40048C1E7B2
:1026D800022802D04FF40031C3E70021C1E7D6F841
:1026E800003543F00053C6F80035D3E700F58060A5
:1026F800406980B2704730B400EB411101F5A06227
:10270800D1F80035C3F38143D1F80045856815F049
:10271800200F02D0E40F002C55D033B3022B24D065
:10272800D1F8003543F08043C1F80035D0F81034B3
:1027380013F47F034AD1D1F8000520F00040C1F816
:102748000005D1F8000540F00040C1F80005D1F8B7
:10275800000520F40040C1F800050133B3F57A7F85
:1027680031D811680029F8DB2DE0D1F8003543F0A5
:102778008043C1F80035836813F0200F23D1C36A62
:1027880013F47F0319D1D1F8000520F00040C1F8F7
:102798000005D1F8000540F00040C1F80005D1F867
:1027A800000520F40040C1F800050133B3F57A7F35
:1027B80009D811680029F8DB05E0D1F8003543F0A5
:1027C8000043C1F80035002030BC7047D1F800350F
:1027D80043F00043C1F80035F5E7000000EB411174
:1027E800064AC1F81025D1F8003523F0804343F09C
:1027F8000043C1F800350020704700BF0000088082
:1028080070B584B04B78C46B14F4807F07D00C7912
:102818002CB9012A11D012B94C79012C1AD04E6961
:10282800E6B10C893519013DB5FBF4F5ADB2B5F546
:10283800807F14D94FF4807511E0CC790CB1022C4B
:10284800E9D100EB4314D4F80C5525F07005C4F811
:102858000C55E0E74978FFF7C1FF6AE00125CC781D
:10286800002C4DD00C8904FB05F40C610C69C4F3F1
:102878001204374E06EAC5452C438D7A6D0705F0DC
:10288800C04500EB431303F5A0662C43C3F810457D
:1028980012B1CC68C3F8144500F58065AC6814F033
:1028A800010FD3F8004524F00054C3F80045D3F8CD
:1028B80000450CBF4FF0005600263443C3F80045CE
:1028C800D3F800450394039C24F080440394CC7807
:1028D800C4B1039C44F400440394039C44F00044B2
:1028E8000394039CC3F800451ABBCB780BBB4B6918
:1028F800FBB1CA79032A15D8DFE802F0091E091EC0
:102908000E61B3E7039C24F400440394E5E7033322
:10291800C26A92B2C3F38F039A4203D2836943F027
:1029280020038361002300938B8A4A78C968FFF7E4
:102938000FFD002004B070BD03332A6992B2C3F3BF
:102948008F039A42EED2836943F080638361E9E79B
:102958000000F81F70B505460446FFF7C4FC1021B7
:102968002846FFF7C7FC2846FFF7DCFC00220AE0F0
:1029780004EB4211D1F8003523F0802343F0804363
:10298800C1F8003501320F2AF2D90020034600E0D1
:1029980001300F2813D804EB401606F5A061D6F8CD
:1029A800002522F4004242F04042C6F800250133D7
:1029B800B3F57A7FECD80A68002AF8DBE8E74FF02D
:1029C800FF33C5F814346B612846FFF786FC0020F6
:1029D80070BD0000002800F0DF8170B582B00446A9
:1029E800036813F0010F3BD0A64B9B6803F00C0360
:1029F800042B2CD0A34B9B6803F00C03082B21D08D
:102A08006368B3F5803F4FD0B3F5A02F52D09D4BEC
:102A18001A6822F480321A601A6822F480221A6036
:102A28006368002B50D000F097FD0546954B1B6856
:102A380013F4003F14D100F08FFD401B6428F5D932
:102A48000320B0E18F4B5B6813F4800FD8D08D4B17
:102A58001B6813F4003F03D06368002B00F09E81CD
:102A6800236813F0020F54D0864B9B6813F00C0FA9
:102A78003ED0844B9B6803F00C03082B33D0E368EB
:102A8800002B67D0804B01221A6000F065FD0546D7
:102A98007C4B1B6813F0020F53D100F05DFD401B07
:102AA8000228F5D903207EE1764A136843F480337F
:102AB8001360B5E7734B1A6842F480221A601A68EB
:102AC80042F480321A60ABE700F046FD05466D4BD4
:102AD8001B6813F4003FC3D000F03EFD401B642880
:102AE800F5D903205FE1674B5B6813F4800FC6D10B
:102AF800644B1B6813F0020F03D0E368012B40F00E
:102B08004F81604A136823F0F803216943EAC1033F
:102B18001360236813F0080F40D0636963B35B4BFD
:102B280001221A6000F018FD0546564B5B6F13F042
:102B3800020F33D100F010FD401B0228F5D9032005
:102B480031E1504A136823F0F803216943EAC103CD
:102B58001360DEE74C4B00221A6000F0FDFC0546CE
:102B6800484B1B6813F0020FD3D000F0F5FC401B54
:102B78000228F5D9032016E1444B00221A6000F020
:102B8800EBFC05463F4B5B6F13F0020F06D000F0DD
:102B9800E3FC401B0228F5D9032004E1236813F065
:102BA800040F78D0374B1B6C13F0805F0DD10023D6
:102BB8000193344B1A6C42F080521A641B6C03F078
:102BC80080530193019B012500E00025304B1B68D1
:102BD80013F4807F21D0A368012B32D0052B36D087
:102BE800284B1A6F22F001021A671A6F22F00402AA
:102BF8001A67A368002B34D000F0AEFC0646214BC0
:102C08001B6F13F0020F45D100F0A6FC801B41F2A8
:102C180088339842F3D90320C5E01D4A136843F46A
:102C28008073136000F098FC0646194B1B6813F478
:102C3800807FD0D100F090FC801B0228F5D90320BA
:102C4800B1E0104A136F43F001031367D1E70D4B4E
:102C58001A6F42F004021A671A6F42F001021A67EB
:102C6800C7E700F079FC0646064B1B6F13F0020F0E
:102C780010D000F071FC801B41F288339842F3D9E0
:102C8800032090E00038024000004742800E47428F
:102C980000700040EDB9A369002B00F08380494A19
:102CA800926802F00C02082A51D0022B17D0464B2A
:102CB80000221A6000F050FC0446424B1B6813F0D7
:102CC800007F42D000F048FC001B0228F5D9032001
:102CD80069E03C4A136C23F080531364DBE73A4BFA
:102CE80000221A6000F038FC0546364B1B6813F0CA
:102CF800007F06D000F030FC401B0228F5D90320E5
:102D080051E0E369226A1343626A43EA8213A26AC2
:102D18005208013A43EA0243E26A43EA0263294A53
:102D28005360294B01221A6000F016FC0446254B1B
:102D38001B6813F0007F06D100F00EFC001B022870
:102D4800F5D903202FE000202DE000202BE0012BF7
:102D58002BD01C4B5B6803F48001E269914226D1B9
:102D680003F03F02216A8A4223D1616A47F6C072A2
:102D78001A40B2EB811F1ED103F44031A26A5208F7
:102D8800013AB1EB024F18D103F07063E26AB3EB7A
:102D9800026F14D1002006E001207047012002E0F4
:102DA800012000E0002002B070BD0120FBE70120F7
:102DB800F9E70120F7E70120F5E70120F3E7012013
:102DC800F1E700BF0038024060004742F8B52F4BDA
:102DD8009B6803F00C03042B53D0082B53D12B4BC7
:102DE8005A6802F03F025B6813F4800F28D0274B23
:102DF8005B68C3F3881358010021C01A61F1000110
:102E08008E0146EA906687013C1A66EB0105E900E7
:102E180041EA5471E000C01841F100014B0243EA55
:102E2800D0534402204619460023FDF74DFB174BAB
:102E38005B68C3F3014301335B00B0FBF3F023E0AD
:102E4800124B5B68C3F388135C010025E41A65F133
:102E58000005AE0146EA9466A701381B66EB05013A
:102E6800CC0044EA5074C500E81844F100018B0214
:102E780043EA90538402204619460023FDF724FBB9
:102E8800D5E7034800E00348F8BD00BF003802401A
:102E980000127A000024F400002800F09B8070B52E
:102EA8000D4604464F4B1B6803F007038B4208D2BC
:102EB800CBB24C4A1370136803F007038B4240F0FF
:102EC8008B80236813F0020F17D013F0040F04D07F
:102ED800454A936843F4E0539360236813F0080F5E
:102EE80004D0414A936843F4604393603E4A936830
:102EF80023F0F003A1680B439360236813F0010FDC
:102F080032D06368012B21D09A1E012A25D9364A6E
:102F1800126812F0020F61D033498A6822F0030266
:102F280013438B6000F018FB06462F4B9B6803F099
:102F38000C036268B3EB820F16D000F00DFB801B08
:102F480041F288339842F0D9032042E0264A1268B9
:102F580012F4003FE0D101203BE0234A126812F04E
:102F6800007FD9D1012034E01E4B1B6803F0070312
:102F7800AB4207D9EAB21B4B1A701B6803F0070370
:102F8800AB422DD1236813F0040F06D0164A93687C
:102F980023F4E053E1680B439360236813F0080FB0
:102FA80007D0114A936823F46043216943EAC103B7
:102FB8009360FFF70BFF0C4B9B68C3F303130B4A9B
:102FC800D35CD8400A4B18600A4B186800F078FAAE
:102FD800002070BD012070470120FAE70120F8E7C2
:102FE8000120F6E7003C024000380240BC560008C9
:102FF8006C00002068000020014B1868704700BF73
:103008006C00002008B5FFF7F7FF044B9B68C3F37B
:103018008223034AD35CD84008BD00BF0038024071
:10302800CC56000808B5FFF7E7FF044B9B68C3F3CD
:103038004233034AD35CD84008BD00BF0038024081
:10304800CC56000830B583B00446036813F0050F6A
:1030580006D1236813F0020F2ED1002003B030BD33
:10306800494B00221A6000F077FA0546474B1B6867
:1030780013F0006F06D000F06FFA431B022BF5D94E
:103088000320EBE76268A3681B0743EA82133F4A01
:10309800C2F884303C4B01221A6000F05DFA054604
:1030A8003A4B1B6813F0006FD3D100F055FA431B5D
:1030B800022BF5D90320D1E700230193334B1A6C77
:1030C80042F080521A641B6C03F080530193019BF9
:1030D8002F4A136843F48073136000F03DFA0546E5
:1030E8002B4B1B6813F4807F06D100F035FA431B85
:1030F800022BF5D90320B1E7244B1B6F13F440735F
:1031080012D0E26802F440729A420DD01F4B1A6F37
:1031180022F440721F4901200860002008601A67E5
:103128001B6F13F0010F13D1E36803F44072B2F57B
:10313800407F1ED0154A936823F4F813936013490F
:103148000B6FE268C2F30B0213430B67002085E79D
:1031580000F002FA05460D4B1B6F13F0020FE3D186
:1031680000F0FAF9401B41F288339842F3D9032062
:1031780074E706498A6822F4F81223F0704323F4AE
:10318800407313438B60DAE7680047420038024017
:1031980000700040400E4742012801D000207047CF
:1031A800164B9B6813F4000303D0012B23D114485A
:1031B8007047124B5B6813F4800F14D00F4B5B6899
:1031C80003F03F030F48B0FBF3F00C4AD2F8843009
:1031D800C3F3881300FB03F0D2F88430C3F30273FF
:1031E800B0FBF3F07047054B5B6803F03F030648FC
:1031F800B0FBF3F0E9E70020704700BF0038024059
:103208000080BB0000127A000024F40000230F2B7A
:1032180000F2DD80F0B482B05DE086685F000324D0
:10322800BC4026EA0406CC68BC4034438460466847
:1032380026EA02064C68C4F300129A403243426000
:1032480057E0DC08083450F8247003F007029600B1
:103258000F22B24027EA02070A69B2403A4340F80F
:1032680024205AE0072200E00022B2403A43023408
:10327800574E46F82420574A1468EA4324EA0506BC
:103288004F6817F4803F01D045EA0406514C266088
:10329800646802EA04064F6817F4003F01D045EA63
:1032A80004064C4C6660A46802EA04064F6817F4EA
:1032B800801F01D045EA0406464CA660E468224017
:1032C8004E6816F4001F01D045EA0402414CE26042
:1032D80001330F2B78D801229A400C6804EA0205C2
:1032E80032EA0404F4D14C6804F00304013C012CD4
:1032F80093D94A6802F00302032A09D0C4685E0021
:103308000322B24024EA02048A68B2402243C2601F
:103318004A6802F00302022A93D004685E0003227E
:10332800B24024EA02044A6802F00302B24022438F
:1033380002604A6812F4403FCAD000220192264A2D
:10334800546C44F480445464526C02F480420192F8
:10335800019A9C08A61C1E4A52F8267003F0030224
:1033680096000F22B24027EA02071C4A90423FF417
:103378007BAF02F5806290421AD002F580629042DB
:1033880018D002F58062904216D002F58062904211
:1033980014D002F58062904212D002F58062904209
:1033A80010D002F5806290423FF45CAF08225CE7DF
:1033B80001225AE7022258E7032256E7042254E77B
:1033C800052252E7062250E702B0F0BC704770476A
:1033D80000380140003C0140003802400000024033
:1033E8000AB181617047090481617047074AD3684F
:1033F80023F4E0631B041B0C000200F4E0600343A9
:1034080043F0BF6343F40033D360704700ED00E03E
:1034180030B4174BDB68C3F30223C3F10704042C51
:1034280028BF04241D1D062D18D9033B4FF0FF3576
:1034380005FA04F421EA0401994005FA03F322EAA3
:103448000303194300280BDB0901C9B200F16040EE
:1034580000F5614080F8001330BC70470023E5E7B1
:1034680000F00F000901C9B2024B1954F4E700BF7C
:1034780000ED00E014ED00E0002807DB00F01F027B
:10348800400901239340024A42F82030704700BFA8
:1034980000E100E00138B0F1807F0AD2064B5860A5
:1034A800064AF02182F823100020986007221A604B
:1034B80070470120704700BF10E000E000ED00E019
:1034C80010B504460E4B18784FF47A73B3FBF0F33B
:1034D8000C4A1068B0FBF3F0FFF7DCFF68B90F2C5B
:1034E80001D901200AE0002221464FF0FF30FFF702
:1034F8008FFF054B1C60002000E0012010BD00BFBD
:10350800640000206C0000206800002008B50B4B08
:103518001A6842F400721A601A6842F480621A60EB
:103528001A6842F480721A600320FFF75FFF0020D8
:10353800FFF7C6FFFDF75AFE002008BD003C024019
:10354800034A1168034B1B780B441360704700BF94
:10355800B409002064000020014B1868704700BFC0
:10356800B409002038B50446FFF7F6FF0546B4F164
:10357800FF3F02D0044B1B781C44FFF7EDFF401BB4
:10358800A042FAD338BD00BF64000020002800F034
:10359800CC80F8B5044690F83D30002B77D0242332
:1035A80084F83D302268136823F001031360226811
:1035B800136843F4004313602268136823F400433C
:1035C8001360FFF71FFD62685A4B9A4264D85A4B42
:1035D80098428CBF00230123002B40F0A880574D50
:1035E800A5FB0035AF0C2668716821F03F0141EA60
:1035F8009541716021680B6A23F03F0365684D4A65
:1036080095424FD87A1C13430B622568E96921F467
:103618004F4121F0FF016368464A93424CD8013874
:103628005B00B0FBF3F0013040F6FC73184278D031
:10363800C0F30B030B43EB6121680B6823F0C00355
:10364800E269206A024313430B6021688B6823F404
:10365800034323F0FF032269E068024313438B60AE
:103668002168CB6823F0FF036269A0690243134312
:10367800CB602268136843F00103136000202064C4
:10368800202384F83D30206384F83E00F8BD80F89C
:103698003C30FDF7CBFD82E7294B98428CBF0023D5
:1036A800012399E74FF4967202FB07F2254DA5FB1B
:1036B800025292090132A6E7A268BAB9461E03EB84
:1036C8004307B6FBF7F60136C6F30B06B6FA86F6DD
:1036D800760946BBC2B9421E03EB4303B2FBF3F2C1
:1036E8000132C2F30B0242F40043A3E7461E03EB88
:1036F800830707EB8707B6FBF7F60136C6F30B0619
:10370800B6FA86F67609E4E7421E03EB830303EB79
:103718008303B2FBF3F20132C2F30B0242F44043DB
:1037280088E7042386E7012384E701207047012006
:10373800ACE700BFA08601007F841E0083DE1B4328
:10374800FF083D00D34D6210002800F0BD8070B521
:10375800044690F84130002B51D0022284F84120D1
:103768002168CB6923F47B6323F00F03CB612368C3
:103778001A626369934263D0E368002B46D110252F
:10378800A368202B00D86D000120FFF705FD2369F1
:10379800B3F5007F3CD0B0FBF5F000EB80004300B0
:1037A8006069B3FBF0F30533484AA2FB0323C3F374
:1037B800C002C2EBD3035B0811029A1EFD2A41D84E
:1037C80022690A43216813430B622168CB6923F4F9
:1037D8007B6323F00F036268A0680243E06802433A
:1037E800A0690243134343F40063CB61236A012BAE
:1037F8002ED000206064012384F8413070BD80F829
:103808004030334B4363FDF74BFDA6E72025B7E770
:10381800E36853B1AD00B0FBF5F000EB8000430066
:103828006069B3FBF0F30533BEE7ED00B0FBF5F0DC
:1038380000EB800043006069B3FBF0F30533B3E7A6
:103848000021BAE7636C43F0100363640120D5E7F5
:10385800204B63632268204B9A421FD04FF04022CE
:10386800D36923F47B6323F00F03D36122681A4BD7
:103878009A4215D04FF0402302221A622268164B52
:103888009A4210D04FF04025EB699BB26268B2F5BE
:10389800007F0AD0B2B94FF4807008E00F4ADFE722
:1038A800A3F58063E8E70D4DEEE74FF480702689B5
:1038B800A189228B304301430A43134343F4006335
:1038C800EB6196E70020F2E701207047CDCCCCCC25
:1038D8005F390008713B00080038004000340040A0
:1038E800704708B5426A03681288DA60436A02338F
:1038F8004362438D9BB2013B9BB24385438D9BB290
:1039080003B108BD0268536823F0A0035360012384
:1039180080F84130FFF7E4FFF3E7704708B5036824
:10392800DA68C36A1A80C36A0233C362438E9BB2E1
:10393800013B9BB24386438E9BB203B108BD02682C
:10394800536823F060035360012380F84130FFF788
:10395800E4FFF3E7704710B584B004460268936843
:10396800039390F84130DBB2042B06D094F8413031
:10397800DBB2032B2CD004B010BD039B13F0010F56
:1039880003D0536813F0400F1FD1039B13F0400F6F
:10399800ECD023685A6812F0200FE7D05A6822F05A
:1039A80060025A60002301932368DA6801929B68D9
:1039B8000193019B012384F84130636C43F00203B7
:1039C80063642046FFF7C6FFD0E7FFF7A7FFDCE7F1
:1039D800039B13F0020F04D023685B6813F0800F79
:1039E8001DD1039B13F0080FC5D023685A6812F045
:1039F800200FC0D05A6822F0A0025A600023029318
:103A080023689B680293029B012384F84130636C0E
:103A180043F0040363642046FFF79CFFABE72046AE
:103A2800FFF75FFFDDE7704708B5436A9A1C4262FB
:103A380002681B88D360438D9BB2013B9BB24385D0
:103A4800438D9BB23BB90268536823F0A0035360CF
:103A5800438E9BB203B108BD012380F84130FFF7C4
:103A6800E2FFF8E708B50268154B9A421CD04FF000
:103A78004023DA68C36A991CC1621A80438E9BB2DC
:103A8800013B9BB24386438E9BB263B902680C4BE1
:103A98009A420CD04FF04022536823F060035360E1
:103AA800438D9BB22BB108BDA3F58063E1E7054ABE
:103AB800F2E7012380F84130FFF7B5FFF3E700BFD5
:103AC800003800400034004008B5436A9A1C42623E
:103AD8001A880168134B994218D04FF04023DA60D6
:103AE800438D9BB2013B9BB24385438D9BB263B927
:103AF80002680C4B9A420CD04FF04022536823F0D6
:103B0800A0035360438E9BB22BB108BDA3F580631D
:103B1800E5E7054AF2E7012380F84130FFF783FF24
:103B2800F3E700BF003800400034004008B50368E0
:103B3800DA68C36A991CC1621A80438E9BB2013B42
:103B48009BB24386438E9BB23BB90268536823F00D
:103B580060035360438D9BB203B108BD012380F815
:103B68004130FFF760FFF8E710B586B004460368F8
:103B78009A680592704A93426FD04FF0402291683C
:103B880004915B680393536802936368B3F5007FFD
:103B980001D0002B70D1059B13F0020F03D0039BBB
:103BA80013F0800F5CD1049B13F0010F03D0029B2C
:103BB80013F0400F58D1049B13F0400F24D0029B00
:103BC80013F0200F20D022685B4B9A4250D04FF060
:103BD8004022536823F0600353602268536823F03F
:103BE800A0035360002300932368DA6800929B685F
:103BF8000093009B012384F84130636C43F0020377
:103C080063642046FFF7A6FE059B13F0080F22D039
:103C1800039B13F0200F1ED02268536823F0A003E3
:103C280053602268444B9A4224D04FF04022536894
:103C380023F0600353600023019323689B6801937A
:103C4800019B012384F84130636C43F004036364EF
:103C58002046FFF77FFE06B010BDA2F580628EE712
:103C68002046FFF7E1FE9EE72046FFF7FBFEA2E7AE
:103C7800324AAEE7314ADAE7049B13F0020F03D069
:103C8800029B13F0800F4AD1059B13F0010F03D05C
:103C9800039B13F0400F46D1059B13F0400F1CD037
:103CA800039B13F0200F18D02268536823F0600399
:103CB80053602268204B9A4239D04FF04022536813
:103CC80023F0A0035360012384F84130636C43F070
:103CD800020363642046FFF73DFE049B13F0080FC0
:103CE800B9D0029B13F0200FB5D02268124B9A422C
:103CF8001FD04FF04022536823F0A003536022687E
:103D0800536823F060035360012384F84130636CE7
:103D180043F0040363642046FFF71CFE9BE720463C
:103D2800FFF7D2FEB0E72046FFF700FFB4E7034AEB
:103D3800C5E7024ADFE700BF003800400034004012
:103D480000285AD010B50446436A33B94368B3F51E
:103D5800827F05D00023C36102E000230361436131
:103D68000023A36294F85130002B40D0022384F83A
:103D780051302268136823F040031360636803F42A
:103D88008273A26802F404421343E26802F40062F8
:103D98001343226902F002021343626902F001022E
:103DA8001343A26902F400721343E26902F0380275
:103DB8001343226A02F080021343A26A02F40052FB
:103DC800216813430B60638B03F00403626A02F0FB
:103DD8001002216813434B602268D36923F40063FF
:103DE800D36100206065012384F8513010BD84F848
:103DF80050302046FDF7B2FAB8E7012070470000BE
:103E080030B4036A23F001030362056A42688469D7
:103E180024F073040B681C4325F002058B682B43C0
:103E2800104DA84203D005F58065A84205D123F0BE
:103E38000803CD682B4323F004030A4DA84203D09E
:103E480005F58065A84205D122F440724D691543F5
:103E58008A692A43426084614A684263036230BCCB
:103E6800704700BF0000014030B4036A23F4807338
:103E78000362036A4268C46924F073040D682C4322
:103E880023F400738D6843EA0523124DA84203D03A
:103E980005F58065A84206D123F40063CD6843EA9E
:103EA800052323F480630B4DA84203D005F58065F4
:103EB800A84207D122F440524D6942EA05128D69A1
:103EC80042EA05124260C4614A68C263036230BCB8
:103ED800704700BF0000014030B4036A23F48053E8
:103EE8000362036A4468C26922F4E6420D6842EA42
:103EF800052223F400538D6843EA0533094DA8428F
:103F080003D005F58065A84204D124F480444D69A6
:103F180044EA85144460C2614A680264036230BCA2
:103F2800704700BF0000014030B4056A25F0100555
:103F380005628469056A24F4407444EA022424F47E
:103F480070441B039BB2234325F0A005090101F02F
:103F5800A00129438361016230BC704730B4056A0F
:103F680025F480750562C469056A24F003041443C6
:103F780024F0F0041B01DBB2234325F42065090279
:103F880001F420612943C361016230BC704730B439
:103F9800056A25F480550562C469056A24F44074ED
:103FA80044EA022424F470441B039BB2234325F4FF
:103FB8002045090301F420412943C361016230BC53
:103FC8007047000090F83D30DBB2012B32D102235C
:103FD80080F83D300368194A934220D0B3F1804FEE
:103FE8001DD0A2F57C42934219D002F5806293421B
:103FF80015D002F58062934211D002F578429342BF
:104008000DD002F57052934209D0A2F59432934232
:1040180005D01A6842F001021A60002070479A68B9
:1040280002F00702062A07D01A6842F001021A6055
:1040380000207047012070470020704700000140B1
:10404800704770477047704710B5044603681A698F
:1040580012F0020F11D0DA6812F0020F0DD06FF0D3
:1040680002021A610123037703689B6913F0030FA7
:1040780070D0FCF77FFC0023237723681A6912F0BD
:10408800040F12D0DA6812F0040F0ED06FF0040299
:104098001A610223237723689B6913F4407F5FD05A
:1040A8002046FCF767FC0023237723681A6912F07F
:1040B800080F12D0DA6812F0080F0ED06FF008025D
:1040C8001A61042323772368DB6913F0030F4ED0AA
:1040D8002046FCF74FFC0023237723681A6912F067
:1040E800100F12D0DA6812F0100F0ED06FF0100215
:1040F8001A61082323772368DB6913F4407F3DD0D6
:104108002046FCF737FC0023237723681A6912F04E
:10411800010F03D0DA6812F0010F36D123681A694B
:1041280012F0800F03D0DA6812F0800F34D12368C0
:104138001A6912F0400F03D0DA6812F0400F32D13A
:1041480023681A6912F0200F03D0DA6812F0200FE2
:1041580030D110BDFFF775FF2046FFF773FF8AE7E0
:104168002046FFF76EFF2046FFF76CFF9BE72046CF
:10417800FFF767FF2046FFF765FFACE72046FFF72C
:1041880060FF2046FFF75EFFBDE76FF001021A618E
:104198002046FFF755FFC1E76FF080021A612046FD
:1041A80000F0CCFBC3E76FF040021A612046FFF72E
:1041B8004AFFC5E76FF020021A61204600F0BDFBF8
:1041C800C7E700000368304A904212D0B0F1804F30
:1041D8000FD0A2F57C4290420BD002F5806290424B
:1041E80007D002F58062904203D002F578429042EF
:1041F80003D123F070034A681343234A90422AD01C
:10420800B0F1804F27D0A2F57C42904223D002F52E
:10421800806290421FD002F5806290421BD002F566
:104228007842904217D002F57052904213D002F5AE
:10423800806290420FD002F5806290420BD0A2F5C6
:104248009832904207D002F58062904203D002F57E
:104258008062904203D123F44073CA68134323F069
:1042680080034A69134303608B68C3620B688362E7
:10427800054B984203D003F58063984201D10B693E
:1042880003630123436170470000014040B310B548
:10429800044690F83D30F3B1022384F83D302146BE
:1042A80051F8040BFFF78EFF012384F8463084F899
:1042B8003E3084F83F3084F8403084F8413084F848
:1042C800423084F8433084F8443084F8453084F828
:1042D8003D30002010BD80F83C30FDF777F8DBE773
:1042E8000120704740B310B5044690F83D30F3B153
:1042F800022384F83D30214651F8040BFFF762FF92
:10430800012384F8463084F83E3084F83F3084F83E
:10431800403084F8413084F8423084F8433084F8DF
:10432800443084F8453084F83D30002010BD80F8D2
:104338003C30FDF7A5F8DBE70120704730B4036A8D
:1043480023F010030362036A4468826922F4E64298
:104358000D6842EA052223F020038D6843EA05131D
:10436800114DA84203D005F58065A84206D123F077
:104378008003CD6843EA051323F040030A4DA842A1
:1043880003D005F58065A84207D124F440644D693F
:1043980044EA85048D6944EA8504446082614A6878
:1043A8008263036230BC70470000014038B590F862
:1043B8003C30012B66D004460D46012380F83C3082
:1043C8000C2A5AD8DFE802F0075959591B5959598C
:1043D8003059595944000068FFF712FD2268936963
:1043E80043F0080393612268936923F004039361FF
:1043F8002268936929690B43936100203EE00068B5
:10440800FFF79CFF2268936943F400639361226875
:10441800936923F48063936122689369296943EA65
:1044280001239361002029E00068FFF71DFD226841
:10443800D36943F00803D3612268D36923F00403E6
:10444800D3612268D36929690B43D361002015E041
:104458000068FFF741FD2268D36943F40063D36124
:104468002268D36923F48063D3612268D3692969F8
:1044780043EA0123D361002000E00120002384F8EF
:104488003C3038BD0220FCE770B4046A24F0010413
:1044980004628469066A194DA8421DD0B0F1804FA4
:1044A8001AD0A5F57C45A84216D005F58065A84226
:1044B80012D005F58065A8420ED005F57845A842CA
:1044C8000AD005F57055A84206D0A5F59435A8423E
:1044D80002D044F0010202E024F00304224322F057
:1044E800F0021B01DBB2134326F00A0201F00A01B5
:1044F80011438361016270BC704700BF0000014036
:1045080038B590F83C30012B5AD004460D460123AB
:1045180080F83C3052B1042A1AD0082A2BD00C2A31
:104528003BD00120002384F83C3038BDCB684A6872
:1045380009680068FFF7A8FF2268936923F00C0355
:10454800936122689369A9680B4393610020E9E7A6
:10455800CB684A6809680068FFF7E6FC2268936937
:1045680023F44063936122689369A96843EA0123AD
:1045780093610020D6E7CB684A6809680068FFF7AE
:10458800EDFC2268D36923F00C03D3612268D36958
:10459800A9680B43D3610020C4E7CB684A6809685F
:1045A8000068FFF7F4FC2268D36923F44063D36101
:1045B8002268D369A96843EA0123D3610020B1E7DF
:1045C8000220B2E710B401F01F01012303FA01F43D
:1045D800036A23EA04030362036A02FA01F10B4344
:1045E80003625DF8044B704710B50446084600297D
:1045F80042D194F83E30DBB2013B18BF0123002BB7
:104608006ED1002851D1022384F83E3001220146A0
:104618002068FFF7D7FF2368334A934203D002F597
:104628008062934203D15A6C42F400425A64236870
:104638002D4A934249D0B3F1804F46D0A2F57C422F
:10464800934242D002F5806293423ED002F58062E6
:1046580093423AD002F57842934236D002F570522E
:10466800934232D0A2F5943293422ED01A6842F087
:1046780001021A60002032E0042908D008290DD070
:1046880094F84130DBB2013B18BF0123B7E794F837
:104698003F30DBB2013B18BF0123B0E794F840304C
:1046A800DBB2013B18BF0123A9E7042805D008287D
:1046B80007D0022384F84130A8E7022384F83F306A
:1046C800A4E7022384F84030A0E79A6802F00702C2
:1046D800062A07D01A6842F001021A60002010BDAD
:1046E8000120FCE70020FAE70000014010B504466D
:1046F8000B4609BB90F83E00C0B26BBB94F8422051
:10470800D2B2012840F0A480012A40F0A2809BBBCD
:10471800022184F83E10002B3ED1022184F8421079
:104728000C2B00F29780DFE803F047959595769576
:1047380095957C9595958200042905D0082907D080
:1047480090F84100C0B2D8E790F83F00C0B2D4E773
:1047580090F84000C0B2D0E7042B05D0082B07D052
:1047680094F84520D2B2CCE794F84320D2B2C8E7F7
:1047780094F84420D2B2C4E7042B05D0082B07D004
:10478800022184F84110C6E7022184F83F10C2E7ED
:10479800022184F84010BEE7042B05D0082B07D06F
:1047A800022184F84510BBE7022184F84310B7E7DB
:1047B800022184F84410B3E72168CA6842F0020273
:1047C800CA60012219462068FFF7FCFE2368234AC5
:1047D800934232D0B3F1804F2FD0A2F57C4293425E
:1047E8002BD002F58062934227D002F58062934273
:1047F80023D002F5784293421FD002F570529342BB
:104808001BD0A2F59432934217D01A6842F00102E5
:104818001A6000201DE02168CA6842F00402CA60DC
:10482800CFE72168CA6842F00802CA60C9E7216870
:10483800CA6842F01002CA60C3E79A6802F0070229
:10484800062A09D01A6842F001021A60002000E026
:10485800012010BD1046FCE70020FAE700000140E7
:1048680090F83C30012B3BD030B4012380F83C3029
:10487800022380F83D3003685C689D6824F070046A
:104888000A6822435A600368164A93421AD0B3F161
:10489800804F17D0A2F57C42934213D002F5806274
:1048A80093420FD002F5806293420BD002F5784212
:1048B800934207D002F57052934203D0A2F5943286
:1048C800934204D125F080054A6815439D60012371
:1048D80080F83D30002380F83C30184630BC7047E3
:1048E800022070470000014090F83C30012B22D094
:1048F800012380F83C30CB6823F440738A68134363
:1049080023F480634A68134323F400630A6813435B
:1049180023F480530A69134323F400534A69134369
:1049280023F48043CA69134302685364002380F860
:104938003C301846704702207047704770470000A7
:10494800034AD2F8883043F47003C2F888307047BD
:1049580000ED00E010B40446002306E003F1E00295
:1049680004EB82020021516001330E2BF6D900239B
:10497800B3F5007F05D2E218002182F81C1101333B
:10498800F6E70020207060700123A370C4F8C40308
:1049980023764022A271607684F81C0384F81D33C4
:1049A80084F81F0384F81E035DF8044B704708B5AC
:1049B8000378DBB20B2B00D008BDD0F87C33002B7A
:1049C800FAD09B699847F7E7D8B170B50E46044608
:1049D80080F8CC230025C0F87C53C0F88053FFF73B
:1049E800B9FF84F8235384F8205384F8215384F8BA
:1049F80022530EB1C4F8D4632046FCF713FB002001
:104A080070BD022070470A4651B1D0F880334BB9C7
:104A1800591CC0F88013DE3340F82320002070476B
:104A2800022070470220704790F83C338B4203D92C
:104A380080F82413002070470220704770B406469F
:104A480000200AE01A2404FB056595F849439C42B6
:104A58001AD0FF2B18D00130C0B2012813D8054650
:104A68001A2404FB006494F847438C4201D0FF29C0
:104A7800F1D11A2404FB056494F848439442E1D028
:104A8800FF2AE8D1DEE7FF2070BC704710B5044666
:104A9800FCF72BFB01212046FCF7FAFA002010BD99
:104AA800C0F8C413704708B5D0F8C4230132C0F861
:104AB800C423FFF77CFF08BD012380F82333704728
:104AC800002380F8233370470346012280F820230F
:104AD800002083F8210383F82203704738B5044681
:104AE800012380F82133002580F8205380F82353D0
:104AF800FCF703FB2179204600F0BCF961792046D8
:104B080000F0B8F9284638BD30B583B00446057EB4
:104B18006B1E0A2B00F2DE80DFE803F00610354139
:104B280054617E8A9DAAC100427900F1100100F00B
:104B380009F902232376284603B030BD4179FCF7F2
:104B4800A1FA0546012805D0042818D0022816D055
:104B58000125F0E7237CE28A42B113F0800F02D1ED
:104B680005232376E7E703232376E4E713F0800F92
:104B780002D107232376DEE709232376DBE70B231D
:104B880023760125D7E7D0F8C433C3810379828916
:104B9800816800F0FEF8042323760125CBE701792C
:104BA800FCF770FA012806D0052800F09580042843
:104BB80004D00125BFE709232376F5E70B232376E5
:104BC8000125B8E70125009543798289816800F0BD
:104BD800CAF8D4F8C433E38106232376ABE74179D6
:104BE800FCF750FA0546012807D0052808D0022806
:104BF8000AD004280CD001259DE7072323769AE7DD
:104C08000C232376032596E705232376012592E7CF
:104C18000B23237602258EE703790022114600F044
:104C2800B8F8D4F8C433E38108232376012582E752
:104C38000179FCF727FA012805D0042807D00528B0
:104C48004CD0012577E70D232376002573E70B2346
:104C5800237601256FE70125009543790022114647
:104C680000F081F8D4F8C433E3810A23237662E79D
:104C78004179FCF707FA012805D0022807D0042853
:104C880009D0012557E70D232376002553E709238B
:104C9800237601254FE70B23237601254BE7437E37
:104CA8000133DBB24376022B03D8012505768570E4
:104CB80041E7D0F8D4330621984700256576617915
:104CC800204600F0D7F82179204600F0D3F8257067
:104CD800022530E701252EE703252CE703252AE7DF
:104CE80010B504468078012803D0022808D0012096
:104CF80010BDA160A281012323760223A370F7E7E8
:104D08002046FFF701FF30B1032804D00228EFD175
:104D18000123A370ECE70123A37000232376E7E7C0
:104D280008B58378012B04D000221146FFF7D8FF7D
:104D380008BD022303740123437400234382818244
:104D4800C382F1E710B584B00B46114600240394E2
:104D5800082202920193009423462246FCF7F0F9B8
:104D6800204604B010BD30B585B00C4619469DF8F4
:104D7800203090F81D5305B100230393029201944B
:104D88000123009300231A46FCF7DAF9002005B046
:104D980030BD30B585B00D46194600240394029203
:104DA8000195012200922346FCF7CAF9204605B076
:104DB80030BD30B585B00C4619469DF8203090F8C6
:104DC8001D5305B10023039302920194012300931C
:104DD80002230022FCF7B4F9002005B030BD30B53D
:104DE80085B00D46194600240394029201950122CC
:104DF80000920223FCF7A4F9204605B030BD002339
:104E08000A2B0CD803F1E00200EB8202526812F47C
:104E1800004F02D00133DBB2F2E798B270474FF689
:104E2800FF70704710B584B0BDF8204002949DF81B
:104E38001C4001949DF818400094FCF766F9002086
:104E480004B010BD08B5FCF773F9002008BD38B5EB
:104E580004460D46FFF7D3FF4FF6FF73984207D07D
:104E680000F00F0345F40045E03304EB830465606C
:104E7800C0B238BD0A2906D8E03100EB81014B6881
:104E8800C3F30E034B60002070470020704708B53D
:104E98002122027420224274002242828282072246
:104EA800C282FFF71DFF08BD08B5A12202742122A6
:104EB80042740022428282820722C282FFF710FFD8
:104EC80008BD38B50446D0F87C33D9694031FFF7BE
:104ED800EBFF054620B9D4F8D43302212046984781
:104EE800284638BD38B50446D0F87C33DD692978C2
:104EF80079B9297BB1B9697BF1B9D4F87C33D86920
:104F080028B1FBF7ADF9D4F87C330022DA61002030
:104F180038BDFFF797FF29782046FFF7ABFF00233E
:104F28002B70E6E72046FFF78DFF297B2046FFF729
:104F3800A1FF00232B73DEE72046FFF783FF697B81
:104F48002046FFF797FF00236B73D6E7F0B585B0CF
:104F58000446012302221146FFF770FD012800F2E2
:104F6800AE80064601462046FFF75EFD074600284C
:104F780040F0A980D4F87C535020FBF769F9E86128
:104F8800D4F87C33DD69002D00F09F805022002189
:104F98002846FBF76DF91A2303FB064393F84E23C3
:104FA80093F94E33002B72DB69782046FFF74FFFE9
:104FB800014628706A786B8902930323019394F859
:104FC8001D33009394F81C332046FFF72BFF002273
:104FD80029782046FCF76AF800231A460A21204659
:104FE800FFF72CFD012872D81A2303FB004393F81E
:104FF8004E2393F94E33002B51DBAA731A2303FB7C
:105008000043B3F850332B831A2303FB004393F870
:10501800562393F95633002B49DBAA731A2303FB53
:105028000040B0F858332B83A97B2046FFF70FFFC9
:105038006873E97B2046FFF70AFF2873AA7B697B20
:105048002B8B02930226019694F81D33009394F853
:105058001C332046FFF7E6FEEA7B297B6B8B029325
:10506800019694F81D33009394F81C332046FFF7FB
:10507800D9FE002685F84C603246697B2046FCF74D
:1050880015F83246297B2046FCF710F818E06A70BC
:105098001A2000FB0646B6F850336B8184E7EA73A2
:1050A8001A2303FB0043B3F850336B83ACE7EA736E
:1050B8001A2303FB0040B0F858336B83B4E7022788
:1050C800384605B0F0BD0227FAE70227F8E70227BD
:1050D800F6E7704730B583B00546D0F87C33DC6915
:1050E80094F84D30012B03D0022B19D003B030BDFA
:1050F800606A228B90420AD9637BE16901200090A3
:105108002846FFF756FE022384F84D30EEE7637B0E
:10511800E1690122009282B22846FFF74AFEF2E7CF
:10512800617BFBF7AFFF012805D00228DED1012300
:1051380084F84D30DAE7636A228B93420AD99B1AC6
:105148006362E3691A44E261636A33B1012384F854
:105158004D30CBE700236362F6E7002384F84D3037
:105168002846FFF7B6FFC1E7704738B50446D0F8C0
:105178007C33DD6995F84E30032B02D0042B09D01F
:1051880038BD2B7B6A8B296AFFF729FE042385F833
:105198004E30F5E7297BFBF775FF0128F0D1297B15
:1051A8002046FBF769FFAB6A83420BD06A8B8242C9
:1051B80008D21B1AAB622B6A18442862032385F8AD
:1051C8004E30DDE7002385F84E302046FFF7CCFF50
:1051D800D6E7704770B50446D0F87C33DE6996F898
:1051E8004C50042D04D8DFE805F03F051339410081
:1051F800012539E0B16CFFF74AFE18B9022386F899
:105208004C3031E001283AD0042386F84C302BE0AA
:1052180006F14001FFF748FE0546C0B9002386F8AD
:105228004C30736C23F07F42B16C4B6823F07F43A2
:105238009A4201D0012517E0326C0B689A4201D0DE
:10524800012511E02046FFF7C4FF01250CE00128E5
:105258000AD0042386F84C30012505E0FFF73AFF11
:105268002046FFF782FF0125284670BD0021FFF781
:1052780057FD30B9002386F84C300125F4E7054680
:10528800F2E70125F0E7000070B5044602681369EB
:1052980023F44053C1680B431361836802691343C5
:1052A80042691343C2691A430168CB6823F4164361
:1052B80023F00C031343CB600268536923F4407353
:1052C80081690B4353610368344A934206D002F55F
:1052D8008062934202D0FDF795FE01E0FDF7A2FE41
:1052E800E369B3F5004F2AD00026051846EB0601FE
:1052F8002D1846EB0101CB0043EA5573EA00154629
:10530800194663689A009B0F281846EB0101FBF7C2
:10531800DBF8234DA5FB00325109642303FB11037D
:105328001B013233A5FB03235B0903F0F00202EBF8
:10533800011203F00F03216813448B6070BD00262F
:10534800051846EB06012D1846EB0101CB0043EA90
:105358005573EA001546194662683346921846EBBB
:105368000303281846EB0101FBF7AEF80C4DA5FB2B
:1053780000325109642303FB1103DB003233A5FB20
:1053880003235B095A0002F4F87202EB011203F0DE
:105398000703216813448B60D0E700BF0010014069
:1053A8001F85EB5158B310B5044690F83D300BB348
:1053B800242384F83D302268D36823F40053D36053
:1053C8002046FFF761FF2268136923F490431361B5
:1053D8002268536923F02A0353612268D36843F48F
:1053E8000053D36000202064202384F83D3084F8E3
:1053F8003E3010BD80F83C30FCF7D8F8D8E70120E3
:1054080070470000012819D002281BD090B13A4BF0
:1054180053F82030002B29D1384B1B68B3B9384BCF
:105428001B685A6B374B43F82020334B012243F853
:1054380020207047314B04221A60E8E72F4B0822DE
:105448001A60E4E72D4B0C221A60E0E7042B05D024
:10545800082B07D02A4B1B681A6CE3E7284B1B68FC
:105468009A6BDFE7264B1B68DA6BDBE7012B00D072
:105478007047224B1B6803BB214B1B685A6B224B9E
:1054880043F820201F4B53F82030934225DAD31AD3
:105498001E4A82FB03121A44DB17C3EB62131C4A31
:1054A80042F820300023174A42F82030164A42F8C2
:1054B8002030114A42F82030DAE7042B05D0082BB7
:1054C80007D00F4B1B681A6CD9E70D4B1B689A6BFA
:1054D800D5E70B4B1B68DA6BD1E7C3F57F43FF3386
:1054E8009B1A0A4A82FB03121A44DB17C3EB6213A6
:1054F800074A42F82030D5E7600A0020C409002096
:10550800AC010020480A0020540A002009CB3D8D38
:10551800B8090020034A52F82030013342F82030FD
:10552800704700BFBC00002038B50C4629B10129DE
:105538000AD002290AD0002200E0012248B101283D
:1055480014D002281FD038BD0022F7E700221446E5
:10555800F4E7134D4FF480512846FDF741FFE2B2BE
:105568004FF400512846FDF73BFFECE70C4D4FF494
:1055780080412846FDF734FFE2B24FF40041284647
:10558800FDF72EFFDFE7074D4FF480712846FDF742
:1055980027FFE2B24FF400712846FDF721FFD2E75A
:1055A80000040240000C024008B5012810D002286F
:1055B8001BD000B108BD00210220FFF7B5FF012173
:1055C8000020FFF7B1FF02210120FFF7ADFFF1E74F
:1055D80000210846FFF7A8FF01210846FFF7A4FFAE
:1055E80002210846FFF7A0FFE4E700210120FFF7AA
:1055F8009BFF01210220FFF797FF02210020FFF700
:1056080093FFD7E708B502210020FFF78DFF02219D
:105618000120FFF789FF02210846FFF785FF08BD33
:10562800012807D0022809D000B17047054B1B6834
:1056380059637047034B1B6899637047014B1B689C
:10564800D963F2E764010020DFF834D00D480E4931
:105658000E4A002302E0D458C4500433C4188C42C4
:10566800F9D30B4A0B4C002301E013600432A24229
:10567800FBD3FFF765F9FAF7C7FDFBF79DFB70470A
:10568800000002200000002090000020E8560008DA
:1056980090000020700A0020FEE70000F8B500BF67
:1056A800F8BC08BC9E467047F8B500BFF8BC08BCFB
:0456B8009E46704753
:1056BC0000000000000000000102030406070809B6
:0C56CC00000000000102030443444300FE
:0856D80028AEFF7F0100000075
:0456E000F1010008CC
:0456E400C9010008F0
:1056E800040000200000000000000000000000008E
:1056F80000000000000000000000000000000000A2
:105708000000000000000000000000000000000091
:105718000000000000000000000000000000000081
:105728000000000000000000000000000000000071
:105738000000000000000000000000000000000061
:105748000000000001000000100000000024F40028
:10575800D456000802000000554F0008ED4E00081E
:10576800CB4E0008DD510008934E000800000000F1
:040000050800565148
:00000001FF
