:020000040800F2
:1000000000C000206128000861080008630800089B
:10001000650800086708000869080008000000007B
:100020000000000000000000000000006B08000855
:100030006D080008000000006F0800087108000843
:10004000B1280008B1280008B1280008B12800082C
:10005000B1280008B1280008B1280008B12800081C
:10006000B1280008B1280008B1280008B12800080C
:10007000B1280008B1280008B1280008B1280008FC
:10008000B1280008B1280008B1280008B1280008EC
:10009000B1280008B1280008B1280008B1280008DC
:1000A000B1280008B1280008B1280008B1280008CC
:1000B000B12800080000000000000000B12800087E
:1000C000B12800080000000000000000B12800086E
:1000D00000000000B1280008B1280008000000005E
:1000E000B1280008B128000800000000000000004E
:1000F0000000000000000000000000000000000000
:10010000000000000000000000000000B12800080E
:100110000000000000000000B1280008B12800081D
:10012000B1280008B1280008B1280008B12800084B
:10013000B1280008000000000000000000000000DE
:10014000B1280008B1280008B1280008B12800082B
:10015000B1280008B1280008B1280008B12800081B
:10016000B1280008B1280008B128000800000000EC
:10017000B1280008B12800080000000000000000BD
:10018000B1280008B1280008B128000800000000CC
:100190000348044B834202D0034B03B11847704716
:1001A0001000002010000020000000000548064953
:1001B0000B1AD90F01EBA301491002D0034B03B175
:1001C00018477047100000201000002000000000B9
:1001D00010B5064C237843B9FFF7DAFF044B13B18F
:1001E0000448AFF300800123237010BD10000020ED
:1001F00000000000B428000808B5044B1BB10449F6
:100200000448AFF30080BDE80840CFE700000000DD
:1002100014000020B428000870B50D4E0D4D761B5B
:10022000B61006D00024013455F8043B9847A64286
:10023000F9D1094E094D761B02F03CFBB61006D0F1
:100240000024013455F8043B9847A642F9D170BD0B
:100250002029000820290008242900082029000856
:10026000F0B4860746D0541E002A3CD0CAB20346DA
:1002700002E014F1FF3436D303F8012B9D07F8D1C7
:10028000032C29D9CDB245EA05250F2C45EA0545B1
:1002900033D9A4F11006360903F1200707EB06173E
:1002A00003F1100242E9045542E902551032BA4204
:1002B000F8D1721C14F00C0F03EB021204F00F06BD
:1002C00013D0331F23F003030433134442F8045BB9
:1002D0009342FBD106F003042CB1C9B21C4403F8CD
:1002E000011B9C42FBD1F0BC704734461346002CE6
:1002F000F3D1F8E714460346C2E71A462646E0E77C
:1003000053B94AB9002908BF00281CBF4FF0FF317C
:100310004FF0FF3000F06EB9ADF1080C6DE904CE7E
:1003200000F006F8DDF804E0DDE9022304B07047D0
:100330002DE9F047089D04468C46002B40F0838051
:100340008A42174647D9B2FA82F242B1C2F120007E
:1003500024FA00F09140974040EA010C94404FEAA3
:100360001748230CBCFBF8F61FFA87FE08FB16C1E2
:1003700043EA014306FB0EF1994209D9FB1806F145
:10038000FF3080F01981994240F21681023E3B44D1
:100390005B1AA4B2B3FBF8F008FB103344EA034441
:1003A00000FB0EFEA64509D93C1900F1FF3380F091
:1003B0000581A64540F2028102383C4440EA0640ED
:1003C000A4EB0E0400261DB1D4400023C5E9004370
:1003D0003146BDE8F08702B9FFDEB2FA82F2002AA8
:1003E00050D1CB1B4FEA174E1FFA87F80126B3FBFB
:1003F000FEFC210C0EFB1C3341EA034108FB0CF30D
:100400008B4207D979180CF1FF3002D28B4200F2EF
:10041000E9808446C91AA3B2B1FBFEF00EFB1011AD
:1004200043EA014408FB00F8A04507D93C1900F154
:10043000FF3302D2A04500F2D9801846A4EB08048D
:1004400040EA0C40BFE78B4209D9002D00F0B18093
:100450000026C5E9000130463146BDE8F087B3FA11
:1004600083F6002E4AD18B4202D3824200F2B8803A
:10047000841A61EB030101208C46002DA8D0C5E948
:10048000004CA5E7C2F1200320FA03F6974001FAD9
:1004900002F04FEA174ED9403043030CB1FBFEF691
:1004A0001FFA87F80EFB161143EA014306FB08F119
:1004B000994204FA02F409D9FB1806F1FF3C80F0D6
:1004C0008D80994240F28A80023E3B445B1A81B2A1
:1004D000B3FBFEF00EFB103341EA034100FB08F3CF
:1004E0008B4207D9791800F1FF3C73D28B4271D946
:1004F00002383944CB1A40EA064678E7C6F1200CA8
:1005000003FA06F422FA0CF31C4320FA0CF701FA62
:1005100006F34FEA144E21FA0CF11F433B0CB1FBDA
:10052000FEF91FFA84F80EFB191143EA014109FB99
:1005300008FA8A4502FA06F200FA06F308D96118A9
:1005400009F1FF3048D28A4546D9A9F10209214470
:10055000A1EB0A01BFB2B1FBFEF00EFB101147EA9E
:10056000014700FB08F8B84507D9E71900F1FF314A
:100570002ED2B8452CD90238274440EA0940A7EBCF
:100580000807A0FB02894F45C64649461AD317D033
:100590005DB1B3EB0E0267EB010707FA0CFCF2400A
:1005A0004CEA0202F740C5E9002700263146BDE8C3
:1005B000F0872E4628460BE70646E9E61846FDE694
:1005C0004345E5D2B8EB020E69EB04010138DFE7E1
:1005D0000846D2E760468DE78146B9E7664675E78B
:1005E00030464AE7ACF1020C394413E702383C4488
:1005F00024E700BF704700BF30B589B000240394E2
:1006000004940594069407941D4BDA6C42F004029E
:10061000DA64DA6C02F004020092009ADA6C42F0BA
:100620000102DA64DA6C02F001020192019ADA6CDA
:1006300042F00202DA64DB6C03F002030293029BD5
:10064000104D22460821284601F0E0FD4FF480734A
:1006500003930223049305940694079403A94FF08F
:10066000904001F013FD08230393012304930594A4
:10067000069403A9284601F009FD09B030BD00BF6A
:10068000001002400004004872B6FEE708B50B48AF
:100690000B4B03604FF4E133436000238360C3607E
:1006A00003610C2242618361C3610362436202F011
:1006B00084F800B908BDFFF7E7FF00BF780000200D
:1006C0000044004000B58FB000230A930B930C93B5
:1006D0000D93079308930993009301930293039357
:1006E0000493059306931F484FF0804202604360D5
:1006F00083604FF6FF72C26003618023836100F064
:10070000C7FA20BB4FF480530A930AA9154800F09A
:10071000FBFBF0B9134800F0EBFAE0B900230793B4
:10072000099307A90F4800F007FDB0B960230093B3
:10073000002201920292049269460A4800F044FBAA
:1007400068B9084800F0C3F80FB05DF804FBFFF784
:100750009BFFFFF799FFFFF797FFFFF795FFFFF765
:1007600093FF00BF2C00002000B597B04422002169
:1007700005A8FFF775FD00230093019302930393EF
:1007800004934FF4007001F057FD002837D101F0B9
:1007900043FD1E4AD2F8903023F01803C2F890307F
:1007A00014230593012307930B9300220C926022DC
:1007B0000D9202220F921093119324231293072378
:1007C00013931492159205A800F016FEC8B90F23D2
:1007D00000930323019300230293039304930421C2
:1007E000684601F049F970B900224FF08071104657
:1007F00000F080FD01F042FC17B05DF804FBFFF74C
:1008000043FFFFF741FFFFF73FFF00BF001002402B
:1008100010B500F0F1FCFFF7A7FFFFF7EDFEFFF7C3
:1008200035FFFFF74FFF00210C4800F0EDFB0024DF
:1008300006E04FF080435C634634322000F0FEFC5B
:100840004FF6FE739C42F4DD002CF9DD4FF080433F
:100850005C63463C322000F0F1FCF5E72C00002000
:10086000FEE7FEE7FEE7FEE7FEE7704770477047EA
:1008700008B500F0D1FC08BD82B00A4B1A6E42F0F8
:1008800001021A661A6E02F001020092009A9A6D35
:1008900042F080529A659B6D03F080530193019B57
:1008A00002B07047001002400368B3F1804F00D0DF
:1008B000704782B003F504339A6D42F001029A65E5
:1008C0009B6D03F001030193019B02B0704700B5DB
:1008D00087B0002301930293039304930593036865
:1008E000B3F1804F02D007B05DF804FB03F5043389
:1008F000DA6C42F00102DA64DB6C03F0010300936E
:10090000009B20230193022302930023039304936B
:100910000123059301A94FF0904001F0B7FBE2E7F6
:1009200070B59CB0044600211791189119911A9145
:100930001B91542202A8FFF793FC22681F4B9A4296
:1009400001D01CB070BD0223029300230B9302A8B8
:1009500001F020FA00282ED1194B9A6D42F4003292
:100960009A659A6D02F400320092009ADA6C42F0B5
:100970000102DA64DB6C03F001030193019B0423A1
:100980001793022618960025199503241A94072315
:100990001B9317A94FF0904001F078FB4FF40043F0
:1009A0001793189619951A941B9417A94FF0904015
:1009B00001F06CFBC5E7FFF767FECDE700440040A0
:1009C0000010024030B4036A23F001030362036A9B
:1009D0004468826922F4803222F073020D682A434F
:1009E00023F002038D682B43144DA84207D005F570
:1009F000A055A84203D005F58065A84205D123F093
:100A00000803CD682B4323F004030C4DA84207D004
:100A100005F5A055A84203D005F58065A84205D18B
:100A200024F440754C692C438D692C4344608261E9
:100A30004A684263036230BC704700BF002C01402B
:100A400030B4036A23F480730362036A4468C269A2
:100A500022F4803222F073020D682A4323F40073DB
:100A60008D6843EA0523124DA84219D0104DA842C3
:100A700007D005F5A055A84203D005F58065A8422A
:100A800007D124F440544D6944EA05148D6944EAC1
:100A900005144460C2614A68C263036230BC704797
:100AA00023F40063CD6843EA052323F48063DDE784
:100AB000002C014030B4036A23F480530362026ABD
:100AC0004468C36923F0807323F4E6430D6843EA66
:100AD000052322F400528D6842EA05320B4DA842EC
:100AE00007D005F5A055A84203D005F58065A842BA
:100AF00004D124F480444D6944EA85144460C36100
:100B00004B680364026230BC704700BF002C014098
:100B100030B4036A23F480330362036A4468426D8D
:100B200022F4803222F070020D682A4323F400334D
:100B30008D6843EA05430B4DA84207D005F5A05543
:100B4000A84203D005F58065A84204D124F480347E
:100B50004D6944EA0524446042654A68826503623F
:100B600030BC7047002C014030B4036A23F480137A
:100B70000362026A4468436D23F0807323F4E04308
:100B80000D6843EA052322F400128D6842EA0552FB
:100B90000B4DA84207D005F5A055A84203D005F596
:100BA0008065A84204D124F480244D6944EA852458
:100BB000446043654B68C365026230BC704700BF48
:100BC000002C014030B4036A056A25F00105056276
:100BD000846924F0F00444EA021423F00A030B436E
:100BE0008461036230BC704730B4056A25F010059B
:100BF00005628469036A24F4704444EA023423F0F1
:100C0000A00343EA01138461036230BC7047836828
:100C100023F070030B4343F0070383607047704772
:100C200003681A4A904202D0B0F1804F03D123F0FA
:100C300070034A681343154A90420AD0B0F1804FBE
:100C400007D002F5A052904203D002F58062904294
:100C500003D123F44073CA68134323F080034A6925
:100C6000134303608B68C3620B688362074B98422F
:100C700007D003F5A053984203D003F58063984250
:100C800001D10B690363012343617047002C0140CC
:100C900060B310B5044690F83D3013B3022384F8D6
:100CA0003D30214651F8040BFFF7BAFF012384F8C9
:100CB000483084F83E3084F83F3084F8403084F87F
:100CC000413084F8423084F8433084F8443084F86A
:100CD000453084F8463084F8473084F83D300020B1
:100CE00010BD80F83C30FFF7DFFDD7E701207047EB
:100CF00060B310B5044690F83D3013B3022384F876
:100D00003D30214651F8040BFFF78AFF012384F898
:100D1000483084F83E3084F83F3084F8403084F81E
:100D2000413084F8423084F8433084F8443084F809
:100D3000453084F8463084F8473084F83D30002050
:100D400010BD80F83C30FFF76AFFD7E701207047FD
:100D500030B4036A23F010030362036A44688269B3
:100D600022F0807222F4E6420D6842EA052223F066
:100D700020038D6843EA0513124DA84219D0114D86
:100D8000A84207D005F5A055A84203D005F5806517
:100D9000A84207D124F440644D6944EA85048D6972
:100DA00044EA8504446082614A688263036230BC1D
:100DB000704723F08003CD6843EA051323F0400316
:100DC000DDE700BF002C014038B590F83C30012B26
:100DD00000F08C8004460D46012380F83C30142A34
:100DE0001ED8DFE802F00B1D1D1D211D1D1D351D28
:100DF0001D1D481D1D1D5C1D1D1D6F000068FFF79A
:100E0000E1FD2268936943F00803936122689369C6
:100E100023F0040393612268936929690B4393616A
:100E2000002084F83C0038BD0068FFF791FF22687D
:100E3000936943F4006393612268936923F48063A8
:100E4000936122689369296943EA01239361E7E783
:100E50000068FFF7F5FD2268D36943F00803D3610A
:100E60002268D36923F00403D3612268D369296916
:100E70000B43D361D4E70068FFF71CFE2268D369F7
:100E800043F40063D3612268D36923F48063D361A0
:100E90002268D369296943EA0123D361C0E7006866
:100EA000FFF736FE2268536D43F00803536522684E
:100EB000536D23F0040353652268536D29690B4376
:100EC0005365ADE70068FFF74FFE2268536D43F4AA
:100ED000006353652268536D23F480635365226871
:100EE000536D296943EA0123536599E702209AE784
:100EF00010B4846824F47F4442EA03220A43224364
:100F000082605DF8044B704790F83C30012B64D050
:100F100010B50446012380F83C30022380F83D30B0
:100F2000026890682E4B034093600B68602B40D0A2
:100F300022D8402B47D00BD9502B0ED1CA68496814
:100F40002068FFF73FFE50212068FFF760FE04E0B5
:100F5000202B0CD008D9302B09D0012384F83D3048
:100F6000002084F83C0010BD0BB1102BF5D11946C0
:100F70002068FFF74CFEF0E7702B0ED0B3F5005F52
:100F8000EBD1CB684A6889682068FFF7B1FF226817
:100F9000936843F480439360DFE7CB684A688968CD
:100FA0002068FFF7A5FF2268936843F077039360FA
:100FB000D3E7CA6849682068FFF716FE60212068F9
:100FC000FFF725FEC9E7CA6849682068FFF7FAFD00
:100FD00040212068FFF71BFEBFE70220704700BFDB
:100FE0008800FEFF10B401F01F01012303FA01F491
:100FF000036A23EA04030362036A02FA01F10B4362
:1010000003625DF8044B704710B50446084600299A
:1010100032D194F83E30DBB2013B18BF0123002BE4
:101020007FD1002853D1022384F83E3001220146AB
:101030002068FFF7D7FF23683D4A934207D002F5A7
:10104000A052934203D002F58062934203D15A6CBE
:1010500042F400425A642368354A934253D0B3F1B4
:10106000804F50D002F5A05293424CD01A6842F003
:1010700001021A60002055E004290CD0082911D083
:101080000C2916D010291BD094F84330DBB2013B59
:1010900018BF0123C3E794F83F30DBB2013B18BF10
:1010A0000123BCE794F84030DBB2013B18BF0123B9
:1010B000B5E794F84130DBB2013B18BF0123AEE73E
:1010C00094F84230DBB2013B18BF0123A7E70428A4
:1010D00009D008280BD00C280DD010280FD00223DF
:1010E00084F84330A2E7022384F83F309EE70223CE
:1010F00084F840309AE7022384F8413096E70223CF
:1011000084F8423092E799680A4A0A40062A0AD0CF
:10111000B2F5803F09D01A6842F001021A6000203F
:1011200000E0012010BD0020FCE70020FAE700BF2E
:10113000002C01400700010090F83C30012B2FD01B
:1011400030B4012380F83C30022380F83D3002683F
:1011500053689568134CA2421DD023F070030C68AD
:101160002343536003680F4A934206D0B3F1804F84
:1011700003D002F5A052934204D125F080058A687D
:1011800015439D60012380F83D30002380F83C30FA
:10119000184630BC704723F470034C682343DCE7E7
:1011A00002207047002C0140104B1B780BB9012026
:1011B000704710B504464FF47A70B0FBF3F30C4A55
:1011C0001068B0FBF3F001F0C5F868B90F2C01D935
:1011D00001200AE0002221464FF0FF3001F086F89E
:1011E000044B1C60002000E0012010BD0000002026
:1011F000080000200400002010B5032001F064F86E
:101200000020FFF7D1FF10B10124204610BD044695
:10121000FFF732FBF9E70000034B1B78034A116824
:101220000B441360704700BF00000020FC0000204A
:10123000014B1868704700BFFC00002038B5044619
:10124000FFF7F6FF0546B4F1FF3F02D0044B1B78D1
:101250001C44FFF7EDFF401BA042FAD338BD00BF8E
:101260000000002030B583B00446204B9B6D13F086
:10127000805F0BD000F0D8FFB0F5007F17D0802C36
:101280001FD82DD0702C2DD000211BE0174DAB6D39
:1012900043F08053AB65AB6D03F080530193019B2A
:1012A00000F0C2FFAB6D23F08053AB65E4E7802C08
:1012B00003D9A02C03D9022104E0002102E001217E
:1012C00000E003210A4A136823F007030B4313606D
:1012D000136803F007038B4206D1002003B030BD32
:1012E0000221EFE70121EDE70120F7E700100240BE
:1012F0000020024070B586B00D461646104CE36CD7
:1013000043F00103E364E36C03F001030093009BEB
:101310004FF48073019302230293049300230393F9
:10132000059301A94FF0904000F0B0FEA36823F0B0
:10133000FE4345EA06021A43A26006B070BD00BF34
:1013400000100240284A9368D26802F0030213F0AA
:101350000C030AD00C2B06D0042B1FD0082B20D056
:101360000020024610E0012AF6D11F4A126812F04E
:10137000080F0CD11C4AD2F89420C2F303221B4957
:1013800051F8222043B100200C2B0DD07047164A93
:101390001268C2F30312F2E71046F5E71448002280
:1013A000F2E714480022EFE70F4BDB6803F003037A
:1013B000022B16D0032B00D10E4A0B4BD868C0F37A
:1013C00002100130D968C1F3062102FB01F2B2FB21
:1013D000F0F2D868C0F3416001304000B2FBF0F099
:1013E000D4E7034AE9E700BF00100240E8280008FC
:1013F0000024F40000127A00002800F02783F0B5E2
:1014000083B00446AE4B9D6805F00C05DE6806F01F
:101410000306036813F0100F5AD0E5B10C2D18D055
:10142000A369002B00F0BB80A54A136843F00103B9
:101430001360FFF7FDFE0746A14B1B6813F0020F78
:1014400040F09A80FFF7F4FEC01B0228F4D9032075
:1014500007E3012EE4D19A4B1B6813F0020F03D06F
:10146000A369002B00F0F482206A954B1B6813F0EF
:10147000080F5BD0924B1B6803F0F00398425CD8D6
:101480008F4B1A6842F008021A601A6822F0F002C4
:10149000216A0A431A605A6822F47F42E16942EAEB
:1014A00001225A60002D60D0FFF74CFF844B9B68EF
:1014B000C3F30313834AD35C03F01F03D840824B6A
:1014C0001860824B1868FFF76FFE002840F0C98251
:1014D000236813F0010F00F08180082D75D00C2DCA
:1014E00071D06368B3F5803F00F09780B3F5A02F0B
:1014F00000F09980724B1A6822F480321A601A68E0
:1015000022F480221A606368002B00F09980FFF7B4
:101510008FFE07466A4B1B6813F4003F5ED1FFF74E
:1015200087FEC01B6428F5D903209AE2644BD3F8E8
:1015300094301B0903F0F003A0E7FFF793FE0028A7
:1015400040F088825E4B1A6842F008021A601A68FE
:1015500022F0F002216A0A431A605A6822F47F429C
:10156000E16942EA01225A609EE7206AFFF77AFEAB
:10157000002899D0012074E2514B1A6842F0080209
:101580001A601A6822F0F002216A0A431A605A6847
:1015900022F47F42E16942EA01225A6098E7484A10
:1015A000136823F001031360FFF742FE0746444B24
:1015B0001B6813F0020F8BD0FFF73AFEC01B022806
:1015C000F5D903204DE2032E8BD13D4B1B6813F45C
:1015D000003F03D06368002B00F03E82236813F0C5
:1015E000020F4FD0042D3CD00C2D38D0E368002BD7
:1015F00077D0334A136843F480731360FFF718FE03
:1016000006462F4B1B6813F4806F61D1FFF710FE65
:10161000801B0228F5D9032023E2294A136843F4EA
:10162000803313606FE703F18043A3F53C331A68FE
:1016300042F480221A601A6842F480321A6062E72B
:10164000FFF7F6FD07461E4B1B6813F4003FC5D09D
:10165000FFF7EEFDC01B6428F5D9032001E2022E3E
:10166000C4D1174B1B6813F4806F03D0E368002BC1
:1016700000F0F481124A536823F0F853216943EAD9
:1016800001635360236813F0080F55D06369002B82
:101690003BD00B4AD2F8943043F00103C2F89430A7
:1016A000FFF7C6FD0646064BD3F8943013F0020F41
:1016B00042D1FFF7BDFD801B0228F4D90320D0E101
:1016C00000100240D028000808000020040000207C
:1016D000B44A536823F0F853216943EA0163536025
:1016E000D0E7B04A136823F480731360FFF7A0FDBE
:1016F0000646AC4B1B6813F4806FC3D0FFF798FD10
:10170000801B0228F5D90320ABE1A64AD2F8943019
:1017100023F00103C2F89430FFF78AFD0646A14B7F
:10172000D3F8943013F0020F06D0FFF781FD801B31
:101730000228F4D9032094E1236813F0040F7AD02F
:10174000984B9B6D13F0805F36D1964B9A6D42F0AB
:1017500080529A659B6D03F080530193019B012693
:10176000914B1B6813F4807F28D0A368012B39D0DC
:10177000052B3FD08B4BD3F8902022F00102C3F809
:101780009020D3F8902022F00402C3F89020A368A0
:10179000002B3DD0FFF74CFD0746824BD3F890302D
:1017A00013F0020F46D1FFF743FDC01B41F288330F
:1017B0009842F2D9032054E10026D1E77A4A13680F
:1017C00043F480731360FFF733FD0746764B1B68C5
:1017D00013F4807FC9D1FFF72BFDC01B0228F5D978
:1017E00003203EE16F4AD2F8903043F00103C2F883
:1017F0009030CCE76B4BD3F8902042F00402C3F852
:101800009020D3F8902042F00102C3F89020BEE768
:10181000FFF70EFD0746634BD3F8903013F0020F2D
:1018200008D0FFF705FDC01B41F288339842F2D97A
:10183000032016E1E6B9236813F0200F35D0636A60
:10184000E3B1584AD2F8983043F00103C2F8983017
:10185000FFF7EEFC0646534BD3F8983013F0020F17
:1018600023D1FFF7E5FC801B0228F4D90320F8E020
:101870004C4A936D23F080539365DCE7494AD2F8D4
:10188000983023F00103C2F89830FFF7D1FC0646E8
:10189000444BD3F8983013F0020F06D0FFF7C8FC82
:1018A000801B0228F4D90320DBE0A36A002B00F0A0
:1018B000D780022B27D00C2D00F0D780394B1A6827
:1018C00022F080721A601B6813F0006F04D1354A51
:1018D000D36823F00303D360324AD36823F08873BC
:1018E00023F48033D360FFF7A3FC04462D4B1B6821
:1018F00013F0007F00F0A880FFF79AFC001B02287D
:10190000F4D90320ADE0274BDB6803F00301E26A62
:10191000914209D00C2D00F0A680224B1B6813F0D9
:10192000806F2BD001209CE003F07002216B013905
:10193000B2EB011FEED103F4FE42616BB2EB012F5B
:10194000E8D103F07842A16BB2EBC16FE2D103F4AE
:10195000C001E26B5208013AB1EB425FDAD103F009
:10196000C063226C5208013AB3EB426FD2D10D4BE7
:101970001B6813F0007F4DD0002072E0094A136805
:1019800023F080731360FFF753FC0546054B1B687B
:1019900013F0007F0AD0FFF74BFC401B0228F5D95B
:1019A00003205EE00010024000700040304AD3681F
:1019B00030491940E36A206B013843EA0013606B39
:1019C00043EA0023E06B4008013843EA4053206CAF
:1019D0004008013843EA4063A06B43EAC0630B430D
:1019E000D360136843F080731360D36843F080734F
:1019F000D360FFF71DFC04461D4B1B6813F0007FEE
:101A000006D1FFF715FC001B0228F5D9032028E0BA
:101A1000002026E0164B1A6842F080721A60DA68DD
:101A200042F08072DA60FFF703FC0446104B1B683B
:101A300013F0007F06D1FFF7FBFB031B022BF5D948
:101A400003200EE000200CE000200AE00120704797
:101A5000012006E0012004E0012002E0012000E076
:101A6000002003B0F0BD0120FBE70120F9E700BF33
:101A7000001002408C809D01002800F0988070B515
:101A80000C4605464E4B1B6803F007038B420BD2F6
:101A90004B4A136823F007030B431360136803F0EA
:101AA00007038B4240F085802B6813F0010F39D07B
:101AB0006B68032B09D0022B26D063BB414A126806
:101AC00012F0020F06D1012070E03E4A126812F0B7
:101AD000007F70D03B498A6822F0030213438B6079
:101AE000FFF7A6FB0646374B9B6803F00C036A68BA
:101AF000B3EB820F16D0FFF79BFB801B41F28833BC
:101B00009842F0D9032051E02E4A126812F4003FA7
:101B1000E0D101204AE02B4A126812F4806FD9D13B
:101B2000012043E02B6813F0020F06D0254A93688A
:101B300023F0F003A9680B439360214B1B6803F06B
:101B40000703A3420AD91E4A136823F0070323435D
:101B50001360136803F00703A3422ED12B6813F020
:101B6000040F06D0174A936823F4E063E9680B4337
:101B700093602B6813F0080F07D0124A936823F480
:101B80006053296943EAC1039360FFF7DBFB0D4B08
:101B90009B68C3F303130C4AD35C03F01F03D840C4
:101BA0000A4B18600A4B1868FFF7FEFA70BD012057
:101BB00070470120FAE70120F8E70120F6E700BFAF
:101BC0000020024000100240D02800080800002039
:101BD00004000020014B1868704700BF0800002077
:101BE00008B5FFF7F7FF054B9B68C3F30223044AD0
:101BF000D35C03F01F03D84008BD00BF00100240B3
:101C0000E028000808B5FFF7E5FF054B9B68C3F324
:101C1000C223044AD35C03F01F03D84008BD00BFB1
:101C200000100240E0280008F8B504460F46584B63
:101C3000DB6813F0030F18D0554BDB6803F0030388
:101C40000268934202D001252846F8BD002A00F020
:101C50009D804F4BDB68C3F302130133426893420C
:101C600001D00125F0E7002509E00368022B56D0DA
:101C7000032B5BD0012B41D00125002DE4D1444A38
:101C8000136823F080631360FFF7D2FA0646404BD7
:101C90001B6813F0006F05D0FFF7CAFA831B022BF5
:101CA000F5D90325002DCFD1002F4DD138490B692F
:101CB00023F0784323F4FE43A068E268D20642EAA8
:101CC000002213430B61324A136843F080631360B0
:101CD000FFF7AEFA06462E4B1B6813F0006F05D1D6
:101CE000FFF7A6FA831B022BF5D90325002DABD1F4
:101CF000274A1369A1690B431361A5E7244A1268B7
:101D000012F0020F1ED02248C26822F073026168EE
:101D1000013943EA01131343C3600025ADE71C4AB0
:101D2000126812F4806FEED10125A6E7184A1268F6
:101D300012F4003FE7D1164A126812F4802FE2D164
:101D400001259AE7012598E7012F0FD01048026975
:101D500022F0C06222F4FE42A16863695B08013B85
:101D60005B0643EA012313430361ACE708480269B9
:101D700022F4C00222F4FE42A16823695B08013B01
:101D80005B0543EA0123134303619CE701255BE7FD
:101D9000001002402DE9F04182B00446036813F4BC
:101DA000006F25D0C36BB3F5000F06D0B3F5400F1D
:101DB00012D04BB1012637461CE0AE4AD36843F43B
:101DC0008033D360002708E000210430FFF72CFFA8
:101DD000074610B106460DE00027A64AD2F8883023
:101DE00023F44003E16B0B43C2F88830002601E086
:101DF00000263746236813F4003F6BD09D4B9B6D44
:101E000013F0805F4CD19B4B9A6D42F080529A65E3
:101E10009B6D03F080530193019B4FF00108964A9C
:101E2000136843F480731360FFF702FA0546924B80
:101E30001B6813F4807F05D1FFF7FAF9401B0228D5
:101E4000F5D90327002F40D18A4BD3F8903013F4F3
:101E5000407315D0226D9A4212D0864AD2F8903043
:101E600023F44073D2F8901041F48031C2F89010FE
:101E7000D2F8901021F48031C2F89010C2F890305E
:101E800013F0010F0FD1002F40F0C980794AD2F82A
:101E9000903023F44073216D0B43C2F8903015E06D
:101EA0004FF00008BBE7FFF7C3F90546714BD3F8C5
:101EB000903013F0020FE6D1FFF7BAF9401B41F260
:101EC00088339842F2D90327DDE73E46B8F1000F88
:101ED00040F0A780236813F0010F08D0654AD2F8BC
:101EE000883023F00303216A0B43C2F8883023684B
:101EF00013F0020F08D05F4AD2F8883023F00C03A9
:101F0000616A0B43C2F88830236813F0200F08D0B1
:101F1000584AD2F8883023F44063A16A0B43C2F8D0
:101F20008830236813F4007F08D0524AD2F88830F2
:101F300023F44023616B0B43C2F88830236813F409
:101F4000806F08D04B4AD2F8883023F44013A16B3D
:101F50000B43C2F88830236813F0400F08D0454A7D
:101F6000D2F8883023F44053E16A0B43C2F888303A
:101F7000236813F4807F08D03E4AD2F8883023F4D7
:101F80004033216B0B43C2F88830236813F4005FA1
:101F90000FD0384AD2F8883023F04063216C0B43CD
:101FA000C2F88830236CB3F1006F40D0B3F1806F7A
:101FB00042D0236813F4802F0FD02E4AD2F88830F5
:101FC00023F04063616C0B43C2F88830636CB3F15B
:101FD000006F39D0B3F1806F3BD0236813F4804F8A
:101FE0000CD0244AD2F8883023F04053A16C0B4324
:101FF000C2F88830A36CB3F1805F32D0236813F449
:10200000004F08D01B4AD2F8883023F08043E16C9F
:102010000B43C2F88830304602B0BDE8F0813E463E
:1020200054E7144A936D23F08053936552E7D368C5
:1020300043F48013D360BCE70121201DFFF7F4FDBA
:102040000028B6D00646B4E7D36843F48013D360C3
:10205000C3E70121201DFFF7E7FD0028BDD006469C
:10206000BBE70221201DFFF7DFFD0028C6D0064692
:10207000C4E700BF0010024000700040024A13682D
:1020800043F004031360704700100240F0B583B0C2
:10209000002397E086685F000325BD4026EA050619
:1020A000CD68BD4035438560466826EA04064D6824
:1020B000C5F300149C4034434460C7685E000325A8
:1020C000B540EC4327EA05078D68B5403D43C56040
:1020D0004D68022D01D0122D13D1DF08083750F8BA
:1020E00027E003F007054FEA850C0F2505FA0CF5EC
:1020F0002EEA050E0D6905FA0CF545EA0E0540F8C5
:102100002750056825404C6804F00304B4402C4374
:1021100004604C6814F0805F53D0384C256E45F055
:1021200001052566246E04F001040194019C9D08BC
:10213000AE1C334C54F8267003F00304A6000F24A1
:10214000B44027EA0407B0F1904F51D02D4CA04283
:1021500050D004F58064A04248D00724B4403C43EA
:102160000235274E46F82540274C2568D44325EAFA
:1021700002064F6817F4803F01D042EA0506224D5F
:102180002E606D6804EA05064F6817F4003F01D021
:1021900042EA05061C4D6E60AD6804EA05064F680C
:1021A00017F4801F01D042EA0506174DAE60ED68B6
:1021B0002C404E6816F4001F01D042EA0504124A72
:1021C000D46001330A6832FA03F415D001249C402C
:1021D0002240F6D04D686E1E012E7FF65BAF112DAA
:1021E0003FF458AF122D7FF468AF53E70224B5E7F0
:1021F0000024B3E70124B1E703B0F0BD00100240B2
:102200000000014000040048000401400AB181615F
:102210007047816270470000024A136843F480737C
:102220001360704700700040024B186800F4C060F3
:10223000704700BF00700040B0F5007F0FD01F4B0B
:102240001B6803F4C063B3F5806F34D01B4A136876
:1022500023F4C06343F48063136000207047174B7E
:102260001B6803F4C063B3F5007F20D0134A1368E2
:1022700023F4C06343F400731360114B1A683223D4
:1022800003FB02F30F4AA2FB03239B0C013300E084
:10229000013B0A4A526912F4806F01D0002BF7D13A
:1022A000064B5B6913F4806F03D100207047002058
:1022B0007047032070470020704700BF0070004047
:1022C0000800002083DE1B43074AD36823F4E06341
:1022D0001B041B0C000200F4E060034343F0BF63E7
:1022E00043F40033D360704700ED00E030B4174B87
:1022F000DB68C3F30223C3F10704042C28BF0424C2
:102300001D1D062D18D9033B4FF0FF3505FA04F4C7
:1023100021EA0401994005FA03F322EA0303194371
:1023200000280BDB0901C9B200F1604000F56140F3
:1023300080F8001330BC70470023E5E700F00F0081
:102340000901C9B2024B1954F4E700BF00ED00E0E7
:1023500014ED00E00138B0F1807F0AD2064B5860DE
:10236000064AF02182F823100020986007221A60A4
:1023700070470120704700BF10E000E000ED00E072
:10238000D0B5044601688368026913434269134368
:10239000C269134308688B4A024013430B602268EA
:1023A000536823F44053E1680B435360A1692268EA
:1023B000854B9A4201D0236A1943936823F4306312
:1023C0000B4393602268814B9A421CD0804B9A4207
:1023D0002DD07D4B9A4243D010237B498A4260D056
:1023E000E069B0F5004F00F08B80082B00F2E4802C
:1023F000DFE813F0B300C900B100E200CC00E20056
:10240000E200E200CF0003F55843D3F8883003F030
:102410000303032B09D8DFE803F002043806012385
:10242000DBE70423D9E70823D7E71023D5E703F533
:10243000E633D3F8883003F00C030C2B0ED8DFE81A
:1024400003F0070D0D0D090D0D0D260D0D0D0B00E3
:102450000023C2E70423C0E70823BEE71023BCE73C
:1024600003F5C833D3F8883003F44063B3F5006F45
:102470000FD005D87BB1B3F5806F0ED10423ACE744
:10248000B3F5406F0BD10823A7E70223A5E702238A
:10249000A3E70223A1E700239FE710239DE7102372
:1024A0009BE7082B78D8DFE803F0087729772677B1
:1024B000777705004FF4004003E0FFF791FB002819
:1024C0006CD0626802EB4203834269D8B0EB023FF2
:1024D00068D80023070E06025008301847F10001A3
:1024E000FDF70EFFA0F540723A4B9A425CD8236884
:1024F000D860002043E0FEF725FFE0E73648E0E73C
:10250000082B53D8DFE803F007210552245252521A
:102510000B00314803E0FFF763FB002848D06268F6
:10252000530803EB4000B0FBF2F080B2A0F11002C0
:102530004FF6EF739A423DD820F00F03C0F34200EC
:1025400018432368D860002019E0FFF75BFBE4E73D
:10255000FEF7F8FEE1E7204802E0FFF741FB68B331
:10256000636800EB5300B0FBF3F080B2A0F11002FF
:102570004FF6EF739A4223D82368D86000200023D7
:102580006366A366D0BDFFF73DFBE8E7FEF7DAFE22
:10259000E5E74FF40040E3E70120F0E70020EEE735
:1025A0000120ECE70120EAE70120E8E70120E6E767
:1025B0000020E4E70120E2E70120E0E70020DEE779
:1025C0000120DCE7F369FFEF0080004000380140A4
:1025D00000440040FFFC0F000024F400436A13F0A5
:1025E000010F06D00268536823F40033816A0B435D
:1025F0005360436A13F0020F06D00268536823F455
:102600008033C16A0B435360436A13F0040F06D052
:102610000268536823F48023016B0B435360436AC1
:1026200013F0080F06D00268536823F40043416B8F
:102630000B435360436A13F0100F06D0026893688F
:1026400023F48053816B0B439360436A13F0200F94
:1026500006D00268936823F40053C16B0B43936068
:10266000436A13F0400F0AD00268536823F48013C2
:10267000016C0B435360036CB3F5801F0BD0436AAE
:1026800013F0800F06D00268536823F40023816C96
:102690000B43536070470268536823F4C003416CD6
:1026A0000B435360EBE72DE9F84305460F4616460A
:1026B0009946DDF820802C68E46937EA04030CBFF2
:1026C00001240024B4423DD1B8F1FF3FF3D0FEF71E
:1026D000AFFDA0EB0900404522D8B8F1000F1FD094
:1026E0002B681A6812F0040FE5D0DA6912F4006F53
:1026F000E1D04FF400621A622A68136823F4D073A1
:1027000013602A68936823F0010393602023AB676A
:10271000EB67C5F88030002385F87430032012E0A1
:102720002A68136823F4D07313602A68936823F02F
:10273000010393602023AB67EB67002385F87430B7
:10274000032000E00020BDE8F88330B583B00446E4
:102750000023C0F88030FEF76BFD054623681B6838
:1027600013F0080F0DD123681B6813F0040F16D166
:102770002023A367E3670020206684F8740003B079
:1027800030BD6FF07E430093034600224FF40011EA
:102790002046FFF788FF0028E5D00320EFE76FF021
:1027A0007E4300932B4600224FF480012046FFF722
:1027B0007AFF0028DCD00320E1E768B310B50446B7
:1027C000836F03B32423A3672268136823F00103F4
:1027D00013602046FFF7D4FD012813D0636ABBB90C
:1027E0002268536823F4904353602268936823F06F
:1027F0002A0393602268136843F0010313602046A4
:10280000FFF7A3FF10BD80F87430FEF789F8D9E711
:102810002046FFF7E3FEE3E7012070470E4AD2F8B7
:10282000883043F47003C2F888300C4B1A6842F0C9
:1028300001021A60002199601A6822F0A85222F45D
:1028400010221A604FF48052DA601A6822F4802253
:102850001A609961704700BF00ED00E0001002406F
:10286000DFF834D0FFF7DAFF002103E00B4B5B58B1
:10287000435004310A480B4B42189A42F6D30A4A95
:1028800002E0002342F8043B084B9A42F9D3FDF7DB
:10289000C3FCFDF7BDFFFEE700C0002030290008A3
:1028A0000000002010000020100000200001002087
:1028B000FEE70000F8B500BFF8BC08BC9E467047B4
:1028C000F8B500BFF8BC08BC9E4670470000000089
:1028D00000000000000000000102030406070809D0
:1028E0000000000001020304A0860100400D030067
:1028F000801A060000350C0040420F0080841E0044
:1029000000093D0000127A000024F40000366E0138
:082910000048E801006CDC0244
:0829180018DAFF7F0100000046
:08292000F901000800000000AD
:08292800D101000800000000CD
:10293000010000001000000000093D000000000040
:040000050800286166
:00000001FF
